{
  "31337": {
    "address": "0xe7f1725E7734CE288F8367e1Bb143E90bb3F0512",
    "abi": [
      {
        "type": "constructor",
        "payable": false,
        "inputs": [
          {
            "type": "string",
            "name": "title"
          },
          {
            "type": "string",
            "name": "name"
          }
        ]
      },
      {
        "type": "event",
        "anonymous": false,
        "name": "Approval",
        "inputs": [
          {
            "type": "address",
            "name": "owner",
            "indexed": true
          },
          {
            "type": "address",
            "name": "approved",
            "indexed": true
          },
          {
            "type": "uint256",
            "name": "tokenId",
            "indexed": true
          }
        ]
      },
      {
        "type": "event",
        "anonymous": false,
        "name": "ApprovalForAll",
        "inputs": [
          {
            "type": "address",
            "name": "owner",
            "indexed": true
          },
          {
            "type": "address",
            "name": "operator",
            "indexed": true
          },
          {
            "type": "bool",
            "name": "approved",
            "indexed": false
          }
        ]
      },
      {
        "type": "event",
        "anonymous": false,
        "name": "EvMintTokenSuccess",
        "inputs": [
          {
            "type": "uint256",
            "name": "tokenId",
            "indexed": false
          }
        ]
      },
      {
        "type": "event",
        "anonymous": false,
        "name": "EvMintTokenToSuccess",
        "inputs": [
          {
            "type": "uint256",
            "name": "tokenId",
            "indexed": false
          }
        ]
      },
      {
        "type": "event",
        "anonymous": false,
        "name": "Transfer",
        "inputs": [
          {
            "type": "address",
            "name": "from",
            "indexed": true
          },
          {
            "type": "address",
            "name": "to",
            "indexed": true
          },
          {
            "type": "uint256",
            "name": "tokenId",
            "indexed": true
          }
        ]
      },
      {
        "type": "function",
        "name": "approve",
        "constant": false,
        "payable": false,
        "gas": 29000000,
        "inputs": [
          {
            "type": "address",
            "name": "to"
          },
          {
            "type": "uint256",
            "name": "tokenId"
          }
        ],
        "outputs": []
      },
      {
        "type": "function",
        "name": "balanceOf",
        "constant": true,
        "stateMutability": "view",
        "payable": false,
        "gas": 29000000,
        "inputs": [
          {
            "type": "address",
            "name": "owner"
          }
        ],
        "outputs": [
          {
            "type": "uint256"
          }
        ]
      },
      {
        "type": "function",
        "name": "getAllTokenURI",
        "constant": true,
        "stateMutability": "view",
        "payable": false,
        "gas": 29000000,
        "inputs": [],
        "outputs": [
          {
            "type": "tuple[]",
            "components": [
              {
                "type": "uint256",
                "name": "tokenId"
              },
              {
                "type": "string",
                "name": "tokenURI"
              }
            ]
          }
        ]
      },
      {
        "type": "function",
        "name": "getApproved",
        "constant": true,
        "stateMutability": "view",
        "payable": false,
        "gas": 29000000,
        "inputs": [
          {
            "type": "uint256",
            "name": "tokenId"
          }
        ],
        "outputs": [
          {
            "type": "address"
          }
        ]
      },
      {
        "type": "function",
        "name": "isApprovedForAll",
        "constant": true,
        "stateMutability": "view",
        "payable": false,
        "gas": 29000000,
        "inputs": [
          {
            "type": "address",
            "name": "owner"
          },
          {
            "type": "address",
            "name": "operator"
          }
        ],
        "outputs": [
          {
            "type": "bool"
          }
        ]
      },
      {
        "type": "function",
        "name": "mintToken",
        "constant": false,
        "payable": false,
        "gas": 29000000,
        "inputs": [
          {
            "type": "string",
            "name": "tokenURI"
          }
        ],
        "outputs": [
          {
            "type": "uint256"
          }
        ]
      },
      {
        "type": "function",
        "name": "mintTokenTo",
        "constant": false,
        "payable": false,
        "gas": 29000000,
        "inputs": [
          {
            "type": "address",
            "name": "_mintTo"
          },
          {
            "type": "string",
            "name": "tokenURI"
          }
        ],
        "outputs": [
          {
            "type": "uint256"
          }
        ]
      },
      {
        "type": "function",
        "name": "name",
        "constant": true,
        "stateMutability": "view",
        "payable": false,
        "gas": 29000000,
        "inputs": [],
        "outputs": [
          {
            "type": "string"
          }
        ]
      },
      {
        "type": "function",
        "name": "ownerOf",
        "constant": true,
        "stateMutability": "view",
        "payable": false,
        "gas": 29000000,
        "inputs": [
          {
            "type": "uint256",
            "name": "tokenId"
          }
        ],
        "outputs": [
          {
            "type": "address"
          }
        ]
      },
      {
        "type": "function",
        "name": "returnTokenURI",
        "constant": true,
        "stateMutability": "view",
        "payable": false,
        "gas": 29000000,
        "inputs": [
          {
            "type": "uint256",
            "name": "_tokenId"
          }
        ],
        "outputs": [
          {
            "type": "string"
          }
        ]
      },
      {
        "type": "function",
        "name": "returnTotalItems",
        "constant": true,
        "stateMutability": "view",
        "payable": false,
        "gas": 29000000,
        "inputs": [],
        "outputs": [
          {
            "type": "uint256"
          }
        ]
      },
      {
        "type": "function",
        "name": "safeTransferFrom",
        "constant": false,
        "payable": false,
        "gas": 29000000,
        "inputs": [
          {
            "type": "address",
            "name": "from"
          },
          {
            "type": "address",
            "name": "to"
          },
          {
            "type": "uint256",
            "name": "tokenId"
          }
        ],
        "outputs": []
      },
      {
        "type": "function",
        "name": "safeTransferFrom",
        "constant": false,
        "payable": false,
        "gas": 29000000,
        "inputs": [
          {
            "type": "address",
            "name": "from"
          },
          {
            "type": "address",
            "name": "to"
          },
          {
            "type": "uint256",
            "name": "tokenId"
          },
          {
            "type": "bytes",
            "name": "data"
          }
        ],
        "outputs": []
      },
      {
        "type": "function",
        "name": "setApprovalForAll",
        "constant": false,
        "payable": false,
        "gas": 29000000,
        "inputs": [
          {
            "type": "address",
            "name": "operator"
          },
          {
            "type": "bool",
            "name": "approved"
          }
        ],
        "outputs": []
      },
      {
        "type": "function",
        "name": "supportsInterface",
        "constant": true,
        "stateMutability": "view",
        "payable": false,
        "gas": 29000000,
        "inputs": [
          {
            "type": "bytes4",
            "name": "interfaceId"
          }
        ],
        "outputs": [
          {
            "type": "bool"
          }
        ]
      },
      {
        "type": "function",
        "name": "symbol",
        "constant": true,
        "stateMutability": "view",
        "payable": false,
        "gas": 29000000,
        "inputs": [],
        "outputs": [
          {
            "type": "string"
          }
        ]
      },
      {
        "type": "function",
        "name": "tokenURI",
        "constant": true,
        "stateMutability": "view",
        "payable": false,
        "gas": 29000000,
        "inputs": [
          {
            "type": "uint256",
            "name": "tokenId"
          }
        ],
        "outputs": [
          {
            "type": "string"
          }
        ]
      },
      {
        "type": "function",
        "name": "transferFrom",
        "constant": false,
        "payable": false,
        "gas": 29000000,
        "inputs": [
          {
            "type": "address",
            "name": "from"
          },
          {
            "type": "address",
            "name": "to"
          },
          {
            "type": "uint256",
            "name": "tokenId"
          }
        ],
        "outputs": []
      }
    ]
  },
  "80001": {
    "address": "0x622CEdac3e4a4D30EF0b75C554471FfA3E831D49",
    "abi": [
      {
        "type": "constructor",
        "payable": false,
        "inputs": [
          {
            "type": "string",
            "name": "title"
          },
          {
            "type": "string",
            "name": "name"
          }
        ]
      },
      {
        "type": "event",
        "anonymous": false,
        "name": "Approval",
        "inputs": [
          {
            "type": "address",
            "name": "owner",
            "indexed": true
          },
          {
            "type": "address",
            "name": "approved",
            "indexed": true
          },
          {
            "type": "uint256",
            "name": "tokenId",
            "indexed": true
          }
        ]
      },
      {
        "type": "event",
        "anonymous": false,
        "name": "ApprovalForAll",
        "inputs": [
          {
            "type": "address",
            "name": "owner",
            "indexed": true
          },
          {
            "type": "address",
            "name": "operator",
            "indexed": true
          },
          {
            "type": "bool",
            "name": "approved",
            "indexed": false
          }
        ]
      },
      {
        "type": "event",
        "anonymous": false,
        "name": "EvMintTokenSuccess",
        "inputs": [
          {
            "type": "uint256",
            "name": "tokenId",
            "indexed": false
          }
        ]
      },
      {
        "type": "event",
        "anonymous": false,
        "name": "EvMintTokenToSuccess",
        "inputs": [
          {
            "type": "uint256",
            "name": "tokenId",
            "indexed": false
          }
        ]
      },
      {
        "type": "event",
        "anonymous": false,
        "name": "Transfer",
        "inputs": [
          {
            "type": "address",
            "name": "from",
            "indexed": true
          },
          {
            "type": "address",
            "name": "to",
            "indexed": true
          },
          {
            "type": "uint256",
            "name": "tokenId",
            "indexed": true
          }
        ]
      },
      {
        "type": "function",
        "name": "approve",
        "constant": false,
        "payable": false,
        "inputs": [
          {
            "type": "address",
            "name": "to"
          },
          {
            "type": "uint256",
            "name": "tokenId"
          }
        ],
        "outputs": []
      },
      {
        "type": "function",
        "name": "balanceOf",
        "constant": true,
        "stateMutability": "view",
        "payable": false,
        "inputs": [
          {
            "type": "address",
            "name": "owner"
          }
        ],
        "outputs": [
          {
            "type": "uint256"
          }
        ]
      },
      {
        "type": "function",
        "name": "getAllTokenURI",
        "constant": true,
        "stateMutability": "view",
        "payable": false,
        "inputs": [],
        "outputs": [
          {
            "type": "tuple[]",
            "components": [
              {
                "type": "uint256",
                "name": "tokenId"
              },
              {
                "type": "string",
                "name": "tokenURI"
              }
            ]
          }
        ]
      },
      {
        "type": "function",
        "name": "getApproved",
        "constant": true,
        "stateMutability": "view",
        "payable": false,
        "inputs": [
          {
            "type": "uint256",
            "name": "tokenId"
          }
        ],
        "outputs": [
          {
            "type": "address"
          }
        ]
      },
      {
        "type": "function",
        "name": "isApprovedForAll",
        "constant": true,
        "stateMutability": "view",
        "payable": false,
        "inputs": [
          {
            "type": "address",
            "name": "owner"
          },
          {
            "type": "address",
            "name": "operator"
          }
        ],
        "outputs": [
          {
            "type": "bool"
          }
        ]
      },
      {
        "type": "function",
        "name": "mintToken",
        "constant": false,
        "payable": false,
        "inputs": [
          {
            "type": "string",
            "name": "tokenURI"
          }
        ],
        "outputs": [
          {
            "type": "uint256"
          }
        ]
      },
      {
        "type": "function",
        "name": "mintTokenTo",
        "constant": false,
        "payable": false,
        "inputs": [
          {
            "type": "address",
            "name": "_mintTo"
          },
          {
            "type": "string",
            "name": "tokenURI"
          }
        ],
        "outputs": [
          {
            "type": "uint256"
          }
        ]
      },
      {
        "type": "function",
        "name": "name",
        "constant": true,
        "stateMutability": "view",
        "payable": false,
        "inputs": [],
        "outputs": [
          {
            "type": "string"
          }
        ]
      },
      {
        "type": "function",
        "name": "ownerOf",
        "constant": true,
        "stateMutability": "view",
        "payable": false,
        "inputs": [
          {
            "type": "uint256",
            "name": "tokenId"
          }
        ],
        "outputs": [
          {
            "type": "address"
          }
        ]
      },
      {
        "type": "function",
        "name": "returnTokenURI",
        "constant": true,
        "stateMutability": "view",
        "payable": false,
        "inputs": [
          {
            "type": "uint256",
            "name": "_tokenId"
          }
        ],
        "outputs": [
          {
            "type": "string"
          }
        ]
      },
      {
        "type": "function",
        "name": "returnTotalItems",
        "constant": true,
        "stateMutability": "view",
        "payable": false,
        "inputs": [],
        "outputs": [
          {
            "type": "uint256"
          }
        ]
      },
      {
        "type": "function",
        "name": "safeTransferFrom",
        "constant": false,
        "payable": false,
        "inputs": [
          {
            "type": "address",
            "name": "from"
          },
          {
            "type": "address",
            "name": "to"
          },
          {
            "type": "uint256",
            "name": "tokenId"
          }
        ],
        "outputs": []
      },
      {
        "type": "function",
        "name": "safeTransferFrom",
        "constant": false,
        "payable": false,
        "inputs": [
          {
            "type": "address",
            "name": "from"
          },
          {
            "type": "address",
            "name": "to"
          },
          {
            "type": "uint256",
            "name": "tokenId"
          },
          {
            "type": "bytes",
            "name": "data"
          }
        ],
        "outputs": []
      },
      {
        "type": "function",
        "name": "setApprovalForAll",
        "constant": false,
        "payable": false,
        "inputs": [
          {
            "type": "address",
            "name": "operator"
          },
          {
            "type": "bool",
            "name": "approved"
          }
        ],
        "outputs": []
      },
      {
        "type": "function",
        "name": "supportsInterface",
        "constant": true,
        "stateMutability": "view",
        "payable": false,
        "inputs": [
          {
            "type": "bytes4",
            "name": "interfaceId"
          }
        ],
        "outputs": [
          {
            "type": "bool"
          }
        ]
      },
      {
        "type": "function",
        "name": "symbol",
        "constant": true,
        "stateMutability": "view",
        "payable": false,
        "inputs": [],
        "outputs": [
          {
            "type": "string"
          }
        ]
      },
      {
        "type": "function",
        "name": "tokenURI",
        "constant": true,
        "stateMutability": "view",
        "payable": false,
        "inputs": [
          {
            "type": "uint256",
            "name": "tokenId"
          }
        ],
        "outputs": [
          {
            "type": "string"
          }
        ]
      },
      {
        "type": "function",
        "name": "transferFrom",
        "constant": false,
        "payable": false,
        "inputs": [
          {
            "type": "address",
            "name": "from"
          },
          {
            "type": "address",
            "name": "to"
          },
          {
            "type": "uint256",
            "name": "tokenId"
          }
        ],
        "outputs": []
      }
    ]
  },
  "_format": "hh-sol-artifact-1",
  "contractName": "Paper",
  "sourceName": "src/Paper.sol",
  "abi": [
    {
      "inputs": [
        {
          "internalType": "string",
          "name": "title",
          "type": "string"
        },
        {
          "internalType": "string",
          "name": "name",
          "type": "string"
        }
      ],
      "stateMutability": "nonpayable",
      "type": "constructor"
    },
    {
      "anonymous": false,
      "inputs": [
        {
          "indexed": true,
          "internalType": "address",
          "name": "owner",
          "type": "address"
        },
        {
          "indexed": true,
          "internalType": "address",
          "name": "approved",
          "type": "address"
        },
        {
          "indexed": true,
          "internalType": "uint256",
          "name": "tokenId",
          "type": "uint256"
        }
      ],
      "name": "Approval",
      "type": "event"
    },
    {
      "anonymous": false,
      "inputs": [
        {
          "indexed": true,
          "internalType": "address",
          "name": "owner",
          "type": "address"
        },
        {
          "indexed": true,
          "internalType": "address",
          "name": "operator",
          "type": "address"
        },
        {
          "indexed": false,
          "internalType": "bool",
          "name": "approved",
          "type": "bool"
        }
      ],
      "name": "ApprovalForAll",
      "type": "event"
    },
    {
      "anonymous": false,
      "inputs": [
        {
          "indexed": true,
          "internalType": "address",
          "name": "from",
          "type": "address"
        },
        {
          "indexed": true,
          "internalType": "address",
          "name": "to",
          "type": "address"
        },
        {
          "indexed": true,
          "internalType": "uint256",
          "name": "tokenId",
          "type": "uint256"
        }
      ],
      "name": "Transfer",
      "type": "event"
    },
    {
      "anonymous": false,
      "inputs": [
        {
          "indexed": false,
          "internalType": "address",
          "name": "_mintTo",
          "type": "address"
        },
        {
          "indexed": false,
          "internalType": "uint256",
          "name": "tokenId",
          "type": "uint256"
        }
      ],
      "name": "mintTokenBasicSuccess",
      "type": "event"
    },
    {
      "anonymous": false,
      "inputs": [
        {
          "indexed": false,
          "internalType": "uint256",
          "name": "tokenId",
          "type": "uint256"
        }
      ],
      "name": "mintTokenBySvgSuccess",
      "type": "event"
    },
    {
      "anonymous": false,
      "inputs": [
        {
          "indexed": false,
          "internalType": "address",
          "name": "_mintTo",
          "type": "address"
        },
        {
          "indexed": false,
          "internalType": "uint256",
          "name": "tokenId",
          "type": "uint256"
        }
      ],
      "name": "mintTokenBySvgToSuccess",
      "type": "event"
    },
    {
      "anonymous": false,
      "inputs": [
        {
          "indexed": false,
          "internalType": "address",
          "name": "_mintTo",
          "type": "address"
        },
        {
          "indexed": false,
          "internalType": "uint256",
          "name": "tokenId",
          "type": "uint256"
        }
      ],
      "name": "mintTokenImageBasicSuccess",
      "type": "event"
    },
    {
      "anonymous": false,
      "inputs": [
        {
          "indexed": false,
          "internalType": "uint256",
          "name": "tokenId",
          "type": "uint256"
        }
      ],
      "name": "mintTokenSuccess",
      "type": "event"
    },
    {
      "anonymous": false,
      "inputs": [
        {
          "indexed": false,
          "internalType": "address",
          "name": "_mintTo",
          "type": "address"
        },
        {
          "indexed": false,
          "internalType": "uint256",
          "name": "tokenId",
          "type": "uint256"
        }
      ],
      "name": "mintTokenTextBasicSuccess",
      "type": "event"
    },
    {
      "anonymous": false,
      "inputs": [
        {
          "indexed": false,
          "internalType": "uint256",
          "name": "tokenId",
          "type": "uint256"
        }
      ],
      "name": "mintTokenToSuccess",
      "type": "event"
    },
    {
      "anonymous": false,
      "inputs": [
        {
          "indexed": false,
          "internalType": "uint256",
          "name": "_tokenId",
          "type": "uint256"
        }
      ],
      "name": "setTokenURIBySvgSuccess",
      "type": "event"
    },
    {
      "inputs": [
        {
          "internalType": "address",
          "name": "to",
          "type": "address"
        },
        {
          "internalType": "uint256",
          "name": "tokenId",
          "type": "uint256"
        }
      ],
      "name": "approve",
      "outputs": [],
      "stateMutability": "nonpayable",
      "type": "function"
    },
    {
      "inputs": [
        {
          "internalType": "address",
          "name": "owner",
          "type": "address"
        }
      ],
      "name": "balanceOf",
      "outputs": [
        {
          "internalType": "uint256",
          "name": "",
          "type": "uint256"
        }
      ],
      "stateMutability": "view",
      "type": "function"
    },
    {
      "inputs": [
        {
          "internalType": "uint256",
          "name": "tokenId",
          "type": "uint256"
        }
      ],
      "name": "getApproved",
      "outputs": [
        {
          "internalType": "address",
          "name": "",
          "type": "address"
        }
      ],
      "stateMutability": "view",
      "type": "function"
    },
    {
      "inputs": [
        {
          "internalType": "string",
          "name": "svgImage",
          "type": "string"
        }
      ],
      "name": "getPackedImage",
      "outputs": [
        {
          "internalType": "string",
          "name": "",
          "type": "string"
        }
      ],
      "stateMutability": "pure",
      "type": "function"
    },
    {
      "inputs": [
        {
          "internalType": "uint256",
          "name": "itemId",
          "type": "uint256"
        }
      ],
      "name": "getTokenBasicURI",
      "outputs": [
        {
          "internalType": "string",
          "name": "",
          "type": "string"
        }
      ],
      "stateMutability": "pure",
      "type": "function"
    },
    {
      "inputs": [
        {
          "internalType": "uint256",
          "name": "itemId",
          "type": "uint256"
        },
        {
          "internalType": "string",
          "name": "_imageUrl",
          "type": "string"
        }
      ],
      "name": "getTokenImageBasicURI",
      "outputs": [
        {
          "internalType": "string",
          "name": "",
          "type": "string"
        }
      ],
      "stateMutability": "pure",
      "type": "function"
    },
    {
      "inputs": [
        {
          "internalType": "uint256",
          "name": "itemId",
          "type": "uint256"
        }
      ],
      "name": "getTokenTextBasicURI",
      "outputs": [
        {
          "internalType": "string",
          "name": "",
          "type": "string"
        }
      ],
      "stateMutability": "pure",
      "type": "function"
    },
    {
      "inputs": [
        {
          "internalType": "uint256",
          "name": "itemId",
          "type": "uint256"
        },
        {
          "internalType": "string",
          "name": "svgImage",
          "type": "string"
        }
      ],
      "name": "getTokenURI",
      "outputs": [
        {
          "internalType": "string",
          "name": "",
          "type": "string"
        }
      ],
      "stateMutability": "pure",
      "type": "function"
    },
    {
      "inputs": [
        {
          "internalType": "address",
          "name": "owner",
          "type": "address"
        },
        {
          "internalType": "address",
          "name": "operator",
          "type": "address"
        }
      ],
      "name": "isApprovedForAll",
      "outputs": [
        {
          "internalType": "bool",
          "name": "",
          "type": "bool"
        }
      ],
      "stateMutability": "view",
      "type": "function"
    },
    {
      "inputs": [
        {
          "internalType": "string",
          "name": "tokenURI",
          "type": "string"
        }
      ],
      "name": "mintToken",
      "outputs": [
        {
          "internalType": "uint256",
          "name": "",
          "type": "uint256"
        }
      ],
      "stateMutability": "nonpayable",
      "type": "function"
    },
    {
      "inputs": [
        {
          "internalType": "address",
          "name": "_mintTo",
          "type": "address"
        }
      ],
      "name": "mintTokenBasic",
      "outputs": [
        {
          "internalType": "uint256",
          "name": "",
          "type": "uint256"
        }
      ],
      "stateMutability": "nonpayable",
      "type": "function"
    },
    {
      "inputs": [
        {
          "internalType": "string",
          "name": "svgImage",
          "type": "string"
        }
      ],
      "name": "mintTokenBySvg",
      "outputs": [
        {
          "internalType": "uint256",
          "name": "",
          "type": "uint256"
        }
      ],
      "stateMutability": "nonpayable",
      "type": "function"
    },
    {
      "inputs": [
        {
          "internalType": "address",
          "name": "_mintTo",
          "type": "address"
        },
        {
          "internalType": "string",
          "name": "svgImage",
          "type": "string"
        }
      ],
      "name": "mintTokenBySvgTo",
      "outputs": [
        {
          "internalType": "uint256",
          "name": "",
          "type": "uint256"
        }
      ],
      "stateMutability": "nonpayable",
      "type": "function"
    },
    {
      "inputs": [
        {
          "internalType": "address",
          "name": "_mintTo",
          "type": "address"
        },
        {
          "internalType": "string",
          "name": "_imageUrl",
          "type": "string"
        }
      ],
      "name": "mintTokenImageBasic",
      "outputs": [
        {
          "internalType": "uint256",
          "name": "",
          "type": "uint256"
        }
      ],
      "stateMutability": "nonpayable",
      "type": "function"
    },
    {
      "inputs": [
        {
          "internalType": "address",
          "name": "_mintTo",
          "type": "address"
        }
      ],
      "name": "mintTokenTextBasic",
      "outputs": [
        {
          "internalType": "uint256",
          "name": "",
          "type": "uint256"
        }
      ],
      "stateMutability": "nonpayable",
      "type": "function"
    },
    {
      "inputs": [
        {
          "internalType": "address",
          "name": "_mintTo",
          "type": "address"
        },
        {
          "internalType": "string",
          "name": "tokenURI",
          "type": "string"
        }
      ],
      "name": "mintTokenTo",
      "outputs": [
        {
          "internalType": "uint256",
          "name": "",
          "type": "uint256"
        }
      ],
      "stateMutability": "nonpayable",
      "type": "function"
    },
    {
      "inputs": [],
      "name": "name",
      "outputs": [
        {
          "internalType": "string",
          "name": "",
          "type": "string"
        }
      ],
      "stateMutability": "view",
      "type": "function"
    },
    {
      "inputs": [
        {
          "internalType": "uint256",
          "name": "tokenId",
          "type": "uint256"
        }
      ],
      "name": "ownerOf",
      "outputs": [
        {
          "internalType": "address",
          "name": "",
          "type": "address"
        }
      ],
      "stateMutability": "view",
      "type": "function"
    },
    {
      "inputs": [
        {
          "internalType": "uint256",
          "name": "_tokenId",
          "type": "uint256"
        }
      ],
      "name": "returnTokenURI",
      "outputs": [
        {
          "internalType": "string",
          "name": "",
          "type": "string"
        }
      ],
      "stateMutability": "view",
      "type": "function"
    },
    {
      "inputs": [
        {
          "internalType": "address",
          "name": "from",
          "type": "address"
        },
        {
          "internalType": "address",
          "name": "to",
          "type": "address"
        },
        {
          "internalType": "uint256",
          "name": "tokenId",
          "type": "uint256"
        }
      ],
      "name": "safeTransferFrom",
      "outputs": [],
      "stateMutability": "nonpayable",
      "type": "function"
    },
    {
      "inputs": [
        {
          "internalType": "address",
          "name": "from",
          "type": "address"
        },
        {
          "internalType": "address",
          "name": "to",
          "type": "address"
        },
        {
          "internalType": "uint256",
          "name": "tokenId",
          "type": "uint256"
        },
        {
          "internalType": "bytes",
          "name": "data",
          "type": "bytes"
        }
      ],
      "name": "safeTransferFrom",
      "outputs": [],
      "stateMutability": "nonpayable",
      "type": "function"
    },
    {
      "inputs": [
        {
          "internalType": "address",
          "name": "operator",
          "type": "address"
        },
        {
          "internalType": "bool",
          "name": "approved",
          "type": "bool"
        }
      ],
      "name": "setApprovalForAll",
      "outputs": [],
      "stateMutability": "nonpayable",
      "type": "function"
    },
    {
      "inputs": [
        {
          "internalType": "uint256",
          "name": "_tokenId",
          "type": "uint256"
        },
        {
          "internalType": "string",
          "name": "svgImage",
          "type": "string"
        }
      ],
      "name": "setTokenURIBySvg",
      "outputs": [
        {
          "internalType": "uint256",
          "name": "",
          "type": "uint256"
        }
      ],
      "stateMutability": "nonpayable",
      "type": "function"
    },
    {
      "inputs": [
        {
          "internalType": "bytes4",
          "name": "interfaceId",
          "type": "bytes4"
        }
      ],
      "name": "supportsInterface",
      "outputs": [
        {
          "internalType": "bool",
          "name": "",
          "type": "bool"
        }
      ],
      "stateMutability": "view",
      "type": "function"
    },
    {
      "inputs": [],
      "name": "symbol",
      "outputs": [
        {
          "internalType": "string",
          "name": "",
          "type": "string"
        }
      ],
      "stateMutability": "view",
      "type": "function"
    },
    {
      "inputs": [
        {
          "internalType": "uint256",
          "name": "tokenId",
          "type": "uint256"
        }
      ],
      "name": "tokenURI",
      "outputs": [
        {
          "internalType": "string",
          "name": "",
          "type": "string"
        }
      ],
      "stateMutability": "view",
      "type": "function"
    },
    {
      "inputs": [
        {
          "internalType": "address",
          "name": "from",
          "type": "address"
        },
        {
          "internalType": "address",
          "name": "to",
          "type": "address"
        },
        {
          "internalType": "uint256",
          "name": "tokenId",
          "type": "uint256"
        }
      ],
      "name": "transferFrom",
      "outputs": [],
      "stateMutability": "nonpayable",
      "type": "function"
    }
  ],
  "bytecode": "0x60806040523480156200001157600080fd5b5060405162002bd338038062002bd38339810160408190526200003491620001e1565b8151829082906200004d9060009060208501906200006e565b508051620000639060019060208401906200006e565b505050505062000288565b8280546200007c906200024b565b90600052602060002090601f016020900481019282620000a05760008555620000eb565b82601f10620000bb57805160ff1916838001178555620000eb565b82800160010185558215620000eb579182015b82811115620000eb578251825591602001919060010190620000ce565b50620000f9929150620000fd565b5090565b5b80821115620000f95760008155600101620000fe565b634e487b7160e01b600052604160045260246000fd5b600082601f8301126200013c57600080fd5b81516001600160401b038082111562000159576200015962000114565b604051601f8301601f19908116603f0116810190828211818310171562000184576200018462000114565b81604052838152602092508683858801011115620001a157600080fd5b600091505b83821015620001c55785820183015181830184015290820190620001a6565b83821115620001d75760008385830101525b9695505050505050565b60008060408385031215620001f557600080fd5b82516001600160401b03808211156200020d57600080fd5b6200021b868387016200012a565b935060208501519150808211156200023257600080fd5b5062000241858286016200012a565b9150509250929050565b600181811c908216806200026057607f821691505b602082108114156200028257634e487b7160e01b600052602260045260246000fd5b50919050565b61293b80620002986000396000f3fe608060405234801561001057600080fd5b50600436106101b95760003560e01c806370a08231116100f9578063b873722b11610097578063c4e10bbf11610071578063c4e10bbf146103a7578063c87b56dd146103ba578063e985e9c5146103cd578063f23002f71461040957600080fd5b8063b873722b1461036e578063b88d4fde14610381578063bad00f781461039457600080fd5b806395d89b41116100d357806395d89b411461032d578063a04dfd6514610335578063a22cb46514610348578063b363482b1461035b57600080fd5b806370a08231146102f45780637a62b64f1461030757806394a233b61461031a57600080fd5b8063123bfbb41161016657806323b872dd1161014057806323b872dd146102a857806333eba49a146102bb57806342842e0e146102ce5780636352211e146102e157600080fd5b8063123bfbb41461026f57806316b14b39146102825780631c97b9531461029557600080fd5b8063081812fc11610197578063081812fc1461021c578063095ea7b3146102475780630c6ab5a71461025c57600080fd5b806301ffc9a7146101be5780630258f525146101e657806306fdde0314610207575b600080fd5b6101d16101cc366004611ca9565b61041c565b60405190151581526020015b60405180910390f35b6101f96101f4366004611ce2565b610501565b6040519081526020016101dd565b61020f610589565b6040516101dd9190611d55565b61022f61022a366004611d68565b61061b565b6040516001600160a01b0390911681526020016101dd565b61025a610255366004611d81565b610642565b005b61020f61026a366004611e57565b610779565b61020f61027d366004611d68565b6107e2565b6101f9610290366004611ce2565b6107ed565b6101f96102a3366004611e9e565b61086f565b61025a6102b6366004611ed6565b6108f9565b6101f96102c9366004611f12565b610980565b61025a6102dc366004611ed6565b6109e1565b61022f6102ef366004611d68565b6109fc565b6101f9610302366004611ce2565b610a61565b6101f9610315366004611e9e565b610afb565b61020f610328366004611d68565b610b79565b61020f610bda565b61020f610343366004611d68565b610be9565b61025a610356366004611f47565b610ceb565b6101f9610369366004611f12565b610cfa565b6101f961037c366004611e9e565b610d69565b61025a61038f366004611f83565b610dd4565b61020f6103a2366004611e57565b610e62565b6101f96103b5366004611e57565b610ec6565b61020f6103c8366004611d68565b610f1a565b6101d16103db366004611fff565b6001600160a01b03918216600090815260056020908152604080832093909416825291909152205460ff1690565b61020f610417366004611f12565b61102b565b60007fffffffff0000000000000000000000000000000000000000000000000000000082167f80ac58cd0000000000000000000000000000000000000000000000000000000014806104af57507fffffffff0000000000000000000000000000000000000000000000000000000082167f5b5e139f00000000000000000000000000000000000000000000000000000000145b806104fb57507f01ffc9a7000000000000000000000000000000000000000000000000000000007fffffffff000000000000000000000000000000000000000000000000000000008316145b92915050565b6000610511600780546001019055565b600061051c60075490565b9050610528838261106c565b600061053382610b79565b905061053f82826111bb565b604080516001600160a01b0386168152602081018490527faab0665630681f9f4ac9f3d402e1077e5b9fb9393ddcbdf8e067649320868a6091015b60405180910390a15092915050565b60606000805461059890612032565b80601f01602080910402602001604051908101604052809291908181526020018280546105c490612032565b80156106115780601f106105e657610100808354040283529160200191610611565b820191906000526020600020905b8154815290600101906020018083116105f457829003601f168201915b5050505050905090565b600061062682611264565b506000908152600460205260409020546001600160a01b031690565b600061064d826109fc565b9050806001600160a01b0316836001600160a01b031614156106dc5760405162461bcd60e51b815260206004820152602160248201527f4552433732313a20617070726f76616c20746f2063757272656e74206f776e6560448201527f720000000000000000000000000000000000000000000000000000000000000060648201526084015b60405180910390fd5b336001600160a01b03821614806106f857506106f881336103db565b61076a5760405162461bcd60e51b815260206004820152603e60248201527f4552433732313a20617070726f76652063616c6c6572206973206e6f7420746f60448201527f6b656e206f776e6572206e6f7220617070726f76656420666f7220616c6c000060648201526084016106d3565b61077483836112cb565b505050565b6060600061078684611346565b61078f8461102b565b6040516020016107a092919061206d565b60405160208183030381529060405290506107ba81611478565b6040516020016107ca9190612153565b60405160208183030381529060405291505092915050565b60606104fb82610f1a565b60006107fd600780546001019055565b600061080860075490565b9050610814838261106c565b6108268161082183610be9565b6111bb565b604080516001600160a01b0385168152602081018390527fb814e9fe1b17142bd57317f37ae39817a579f68f01de9620c97e2707646c288291015b60405180910390a192915050565b600061087f600780546001019055565b600061088a60075490565b9050610896848261106c565b60006108a28285610779565b90506108ae82826111bb565b604080516001600160a01b0387168152602081018490527f96b3245bfa7399fc26d2f9286aed2c7232aed6850d6ed069b2c5f052ddea395f91015b60405180910390a1509392505050565b61090333826115cc565b6109755760405162461bcd60e51b815260206004820152602e60248201527f4552433732313a2063616c6c6572206973206e6f7420746f6b656e206f776e6560448201527f72206e6f7220617070726f76656400000000000000000000000000000000000060648201526084016106d3565b61077483838361164a565b6000610990600780546001019055565b600061099b60075490565b90506109a7338261106c565b6109b181846111bb565b6040518181527f63e85474c2157e35bb057452b35557bac0965833c5b1797e74b926bf0a1e543a90602001610861565b61077483838360405180602001604052806000815250610dd4565b6000818152600260205260408120546001600160a01b0316806104fb5760405162461bcd60e51b815260206004820152601860248201527f4552433732313a20696e76616c696420746f6b656e204944000000000000000060448201526064016106d3565b60006001600160a01b038216610adf5760405162461bcd60e51b815260206004820152602960248201527f4552433732313a2061646472657373207a65726f206973206e6f74206120766160448201527f6c6964206f776e6572000000000000000000000000000000000000000000000060648201526084016106d3565b506001600160a01b031660009081526003602052604090205490565b6000610b0b600780546001019055565b6000610b1660075490565b9050610b22848261106c565b6000610b2e8285610e62565b9050610b3a82826111bb565b604080516001600160a01b0387168152602081018490527f7c5b81ad8dd98b660913aa315260f9d4aca9225f1c48b570cf511e28f7c3587591016108e9565b60606000610b8683611346565b604051602001610b969190612198565b60405160208183030381529060405290506000610bb282611478565b604051602001610bc29190612153565b60408051601f19818403018152919052949350505050565b60606001805461059890612032565b6060610bf3611bbb565b60405180610120016040528060fd81526020016127c960fd91398152610c1883611346565b6020828101918252604080518082018252600d81527f3c2f746578743e3c2f7376673e0000000000000000000000000000000000000081840152818501819052845193519151600094610c6f9490939291016122f5565b60405160208183030381529060405290506000610cbc610c8e86611346565b610c9784611478565b604051602001610ca8929190612338565b604051602081830303815290604052611478565b9050600081604051602001610cd19190612153565b60408051601f198184030181529190529695505050505050565b610cf6338383611824565b5050565b6000610d0a600780546001019055565b6000610d1560075490565b9050610d21338261106c565b6000610d2d8285610779565b9050610d3982826111bb565b6040518281527ff04a40f3aa636a3be644ed7a24ef5ae4953d0e897cbfd5abfa1bacbabe2cf28a9060200161057a565b6000610d79600780546001019055565b6000610d8460075490565b9050610d90848261106c565b610d9a81846111bb565b6040518181527f240eec49abd65986d6659e79b4b80a8c65c72a8f7cf106cb03dacc057f22f2da9060200160405180910390a19392505050565b610dde33836115cc565b610e505760405162461bcd60e51b815260206004820152602e60248201527f4552433732313a2063616c6c6572206973206e6f7420746f6b656e206f776e6560448201527f72206e6f7220617070726f76656400000000000000000000000000000000000060648201526084016106d3565b610e5c84848484611911565b50505050565b60606000610e6f84611346565b83604051602001610e81929190612469565b60405160208183030381529060405290506000610e9d82611478565b604051602001610ead9190612153565b60408051808303601f1901815291905295945050505050565b600080610ed38484610779565b9050610edf84826111bb565b6040518481527fbb4b8fab1f13fd4e93b868bedced1f307c9aeda2aba73044de312d134bb4a0719060200160405180910390a1509192915050565b6060610f2582611264565b60008281526006602052604081208054610f3e90612032565b80601f0160208091040260200160405190810160405280929190818152602001828054610f6a90612032565b8015610fb75780601f10610f8c57610100808354040283529160200191610fb7565b820191906000526020600020905b815481529060010190602001808311610f9a57829003601f168201915b505050505090506000610fd560408051602081019091526000815290565b9050805160001415610fe8575092915050565b81511561101a578082604051602001611002929190612622565b60405160208183030381529060405292505050919050565b6110238461199a565b949350505050565b60606000826040516020016110409190612651565b6040516020818303038152906040529050600061105c82611478565b604051602001610bc2919061266d565b6001600160a01b0382166110c25760405162461bcd60e51b815260206004820181905260248201527f4552433732313a206d696e7420746f20746865207a65726f206164647265737360448201526064016106d3565b6000818152600260205260409020546001600160a01b0316156111275760405162461bcd60e51b815260206004820152601c60248201527f4552433732313a20746f6b656e20616c7265616479206d696e7465640000000060448201526064016106d3565b6001600160a01b03821660009081526003602052604081208054600192906111509084906126c8565b9091555050600081815260026020526040808220805473ffffffffffffffffffffffffffffffffffffffff19166001600160a01b03861690811790915590518392907fddf252ad1be2c89b69c2b068fc378daa952ba7f163c4a11628f55a4df523b3ef908290a45050565b6000828152600260205260409020546001600160a01b03166112455760405162461bcd60e51b815260206004820152602e60248201527f45524337323155524953746f726167653a2055524920736574206f66206e6f6e60448201527f6578697374656e7420746f6b656e00000000000000000000000000000000000060648201526084016106d3565b6000828152600660209081526040909120825161077492840190611be2565b6000818152600260205260409020546001600160a01b03166112c85760405162461bcd60e51b815260206004820152601860248201527f4552433732313a20696e76616c696420746f6b656e204944000000000000000060448201526064016106d3565b50565b6000818152600460205260409020805473ffffffffffffffffffffffffffffffffffffffff19166001600160a01b038416908117909155819061130d826109fc565b6001600160a01b03167f8c5be1e5ebec7d5bd14f71427d1e84f3dd0314c0f7b2291e5b200ac8c7c3b92560405160405180910390a45050565b60608161138657505060408051808201909152600181527f3000000000000000000000000000000000000000000000000000000000000000602082015290565b8160005b81156113b0578061139a816126e0565b91506113a99050600a83612711565b915061138a565b60008167ffffffffffffffff8111156113cb576113cb611dab565b6040519080825280601f01601f1916602001820160405280156113f5576020820181803683370190505b5090505b84156110235761140a600183612725565b9150611417600a8661273c565b6114229060306126c8565b60f81b818381518110611437576114376122df565b60200101907effffffffffffffffffffffffffffffffffffffffffffffffffffffffffffff1916908160001a905350611471600a86612711565b94506113f9565b606081516000141561149857505060408051602081019091526000815290565b60006040518060600160405280604081526020016128c660409139905060006003845160026114c791906126c8565b6114d19190612711565b6114dc906004612750565b67ffffffffffffffff8111156114f4576114f4611dab565b6040519080825280601f01601f19166020018201604052801561151e576020820181803683370190505b509050600182016020820185865187015b8082101561158a576003820191508151603f8160121c168501518453600184019350603f81600c1c168501518453600184019350603f8160061c168501518453600184019350603f811685015184535060018301925061152f565b50506003865106600181146115a657600281146115b9576115c1565b603d6001830353603d60028303536115c1565b603d60018303535b509195945050505050565b6000806115d8836109fc565b9050806001600160a01b0316846001600160a01b0316148061161f57506001600160a01b0380821660009081526005602090815260408083209388168352929052205460ff165b806110235750836001600160a01b03166116388461061b565b6001600160a01b031614949350505050565b826001600160a01b031661165d826109fc565b6001600160a01b0316146116d95760405162461bcd60e51b815260206004820152602560248201527f4552433732313a207472616e736665722066726f6d20696e636f72726563742060448201527f6f776e657200000000000000000000000000000000000000000000000000000060648201526084016106d3565b6001600160a01b0382166117545760405162461bcd60e51b8152602060048201526024808201527f4552433732313a207472616e7366657220746f20746865207a65726f2061646460448201527f726573730000000000000000000000000000000000000000000000000000000060648201526084016106d3565b61175f6000826112cb565b6001600160a01b0383166000908152600360205260408120805460019290611788908490612725565b90915550506001600160a01b03821660009081526003602052604081208054600192906117b69084906126c8565b9091555050600081815260026020526040808220805473ffffffffffffffffffffffffffffffffffffffff19166001600160a01b0386811691821790925591518493918716917fddf252ad1be2c89b69c2b068fc378daa952ba7f163c4a11628f55a4df523b3ef91a4505050565b816001600160a01b0316836001600160a01b031614156118865760405162461bcd60e51b815260206004820152601960248201527f4552433732313a20617070726f766520746f2063616c6c65720000000000000060448201526064016106d3565b6001600160a01b0383811660008181526005602090815260408083209487168084529482529182902080547fffffffffffffffffffffffffffffffffffffffffffffffffffffffffffffff001686151590811790915591519182527f17307eab39ab6107e8899845ad3d59bd9653f200f220920489ca2b5937696c31910160405180910390a3505050565b61191c84848461164a565b61192884848484611a0e565b610e5c5760405162461bcd60e51b815260206004820152603260248201527f4552433732313a207472616e7366657220746f206e6f6e20455243373231526560448201527f63656976657220696d706c656d656e746572000000000000000000000000000060648201526084016106d3565b60606119a582611264565b60006119bc60408051602081019091526000815290565b905060008151116119dc5760405180602001604052806000815250611a07565b806119e684611346565b6040516020016119f7929190612622565b6040516020818303038152906040525b9392505050565b60006001600160a01b0384163b15611bb0576040517f150b7a020000000000000000000000000000000000000000000000000000000081526001600160a01b0385169063150b7a0290611a6b90339089908890889060040161276f565b602060405180830381600087803b158015611a8557600080fd5b505af1925050508015611ab5575060408051601f3d908101601f19168201909252611ab2918101906127ab565b60015b611b65573d808015611ae3576040519150601f19603f3d011682016040523d82523d6000602084013e611ae8565b606091505b508051611b5d5760405162461bcd60e51b815260206004820152603260248201527f4552433732313a207472616e7366657220746f206e6f6e20455243373231526560448201527f63656976657220696d706c656d656e746572000000000000000000000000000060648201526084016106d3565b805181602001fd5b7fffffffff00000000000000000000000000000000000000000000000000000000167f150b7a0200000000000000000000000000000000000000000000000000000000149050611023565b506001949350505050565b60405180606001604052806003905b6060815260200190600190039081611bca5790505090565b828054611bee90612032565b90600052602060002090601f016020900481019282611c105760008555611c56565b82601f10611c2957805160ff1916838001178555611c56565b82800160010185558215611c56579182015b82811115611c56578251825591602001919060010190611c3b565b50611c62929150611c66565b5090565b5b80821115611c625760008155600101611c67565b7fffffffff00000000000000000000000000000000000000000000000000000000811681146112c857600080fd5b600060208284031215611cbb57600080fd5b8135611a0781611c7b565b80356001600160a01b0381168114611cdd57600080fd5b919050565b600060208284031215611cf457600080fd5b611a0782611cc6565b60005b83811015611d18578181015183820152602001611d00565b83811115610e5c5750506000910152565b60008151808452611d41816020860160208601611cfd565b601f01601f19169290920160200192915050565b602081526000611a076020830184611d29565b600060208284031215611d7a57600080fd5b5035919050565b60008060408385031215611d9457600080fd5b611d9d83611cc6565b946020939093013593505050565b634e487b7160e01b600052604160045260246000fd5b600067ffffffffffffffff80841115611ddc57611ddc611dab565b604051601f8501601f19908116603f01168101908282118183101715611e0457611e04611dab565b81604052809350858152868686011115611e1d57600080fd5b858560208301376000602087830101525050509392505050565b600082601f830112611e4857600080fd5b611a0783833560208501611dc1565b60008060408385031215611e6a57600080fd5b82359150602083013567ffffffffffffffff811115611e8857600080fd5b611e9485828601611e37565b9150509250929050565b60008060408385031215611eb157600080fd5b611eba83611cc6565b9150602083013567ffffffffffffffff811115611e8857600080fd5b600080600060608486031215611eeb57600080fd5b611ef484611cc6565b9250611f0260208501611cc6565b9150604084013590509250925092565b600060208284031215611f2457600080fd5b813567ffffffffffffffff811115611f3b57600080fd5b61102384828501611e37565b60008060408385031215611f5a57600080fd5b611f6383611cc6565b915060208301358015158114611f7857600080fd5b809150509250929050565b60008060008060808587031215611f9957600080fd5b611fa285611cc6565b9350611fb060208601611cc6565b925060408501359150606085013567ffffffffffffffff811115611fd357600080fd5b8501601f81018713611fe457600080fd5b611ff387823560208401611dc1565b91505092959194509250565b6000806040838503121561201257600080fd5b61201b83611cc6565b915061202960208401611cc6565b90509250929050565b600181811c9082168061204657607f821691505b6020821081141561206757634e487b7160e01b600052602260045260246000fd5b50919050565b7f7b0000000000000000000000000000000000000000000000000000000000000081527f226e616d65223a2022426f6f6d205061706572202300000000000000000000006001820152600083516120cb816016850160208801611cfd565b61088b60f21b6016918401918201527f22696d6167655f64617461223a2022000000000000000000000000000000000060188201528351612113816027840160208801611cfd565b7f220000000000000000000000000000000000000000000000000000000000000060279290910191820152607d60f81b6028820152602901949350505050565b7f646174613a6170706c69636174696f6e2f6a736f6e3b6261736536342c00000081526000825161218b81601d850160208701611cfd565b91909101601d0192915050565b7f7b226e616d65223a2022426f6f6d2050617065722020230000000000000000008152600082516121d0816017850160208701611cfd565b61088b60f21b601791840191820152612235601982017f226465736372697074696f6e223a20224120426f6f6d2050617065722066726f81527f6d20426f6f6d4c616273222c00000000000000000000000000000000000000006020820152602c0190565b7f2261747472696275746573223a205b207b202274726169745f74797065223a2081527f2254797065222c202276616c7565223a2022426173696322207d202c7b20227460208201527f726169745f74797065223a20224d736731222c202276616c7565223a2022492060408201527f4c6f766520596f752122207d205d0000000000000000000000000000000000006060820152607d60f81b606e820152606f01949350505050565b634e487b7160e01b600052603260045260246000fd5b60008451612307818460208901611cfd565b84519083019061231b818360208901611cfd565b845191019061232e818360208801611cfd565b0195945050505050565b7f7b226e616d65223a2022426f6f6d205061706572202023000000000000000000815260008351612370816017850160208801611cfd565b61088b60f21b6017918401918201526123d5601982017f226465736372697074696f6e223a20224120426f6f6d2050617065722066726f81527f6d20426f6f6d4c616273222c00000000000000000000000000000000000000006020820152602c0190565b90507f22696d6167655f64617461223a2022646174613a696d6167652f7376672b786d81527f6c3b6261736536342c000000000000000000000000000000000000000000000060208201528351612433816029840160208801611cfd565b7f227d00000000000000000000000000000000000000000000000000000000000060299290910191820152602b01949350505050565b7f7b226e616d65223a2022426f6f6d2050617065722020230000000000000000008152600083516124a1816017850160208801611cfd565b61088b60f21b601791840191820152612506601982017f226465736372697074696f6e223a20224120426f6f6d2050617065722066726f81527f6d20426f6f6d4c616273222c00000000000000000000000000000000000000006020820152602c0190565b90507f2261747472696275746573223a205b207b202274726169745f74797065223a2081527f2254797065222c202276616c7565223a2022426173696322207d202c7b20227460208201527f726169745f74797065223a20224d736731222c202276616c7565223a2022492060408201527f4c6f766520596f752122207d205d2c000000000000000000000000000000000060608201527f22696d61676522203a0000000000000000000000000000000000000000000000606f8201527f220000000000000000000000000000000000000000000000000000000000000080607883015284516125fd816079850160208901611cfd565b6079920191820152612619607a8201607d60f81b815260010190565b95945050505050565b60008351612634818460208801611cfd565b835190830190612648818360208801611cfd565b01949350505050565b60008251612663818460208701611cfd565b9190910192915050565b7f646174613a696d6167652f7376672b786d6c3b6261736536342c0000000000008152600082516126a581601a850160208701611cfd565b91909101601a0192915050565b634e487b7160e01b600052601160045260246000fd5b600082198211156126db576126db6126b2565b500190565b60006000198214156126f4576126f46126b2565b5060010190565b634e487b7160e01b600052601260045260246000fd5b600082612720576127206126fb565b500490565b600082821015612737576127376126b2565b500390565b60008261274b5761274b6126fb565b500690565b600081600019048311821515161561276a5761276a6126b2565b500290565b60006001600160a01b038087168352808616602084015250836040830152608060608301526127a16080830184611d29565b9695505050505050565b6000602082840312156127bd57600080fd5b8151611a0781611c7b56fe3c73766720786d6c6e733d22687474703a2f2f7777772e77332e6f72672f323030302f73766722207072657365727665417370656374526174696f3d22784d696e594d696e206d656574222076696577426f783d223020302033353020333530223e3c7374796c653e2e62617365207b2066696c6c3a2077686974653b20666f6e742d66616d696c793a2073657269663b20666f6e742d73697a653a20313470783b207d3c2f7374796c653e3c726563742077696474683d223130302522206865696768743d2231303025222066696c6c3d22626c61636b22202f3e3c7465787420783d2231302220793d2232302220636c6173733d2262617365223e4142434445464748494a4b4c4d4e4f505152535455565758595a6162636465666768696a6b6c6d6e6f707172737475767778797a303132333435363738392b2fa264697066735822122026e2dc79981f48782cc8e1f8d1240b070389d1ac50ea4c1d484d29352fe96fbb64736f6c63430008090033",
  "linkReferences": {},
  "deployedLinkReferences": {}
}