{
  "31337": {
    "address": "0x5FbDB2315678afecb367f032d93F642f64180aa3",
    "abi": [
      {
        "type": "constructor",
        "payable": false,
        "inputs": []
      },
      {
        "type": "error",
        "name": "PaperManager__Error",
        "inputs": [
          {
            "type": "string",
            "name": "caller"
          },
          {
            "type": "string",
            "name": "message"
          }
        ]
      },
      {
        "type": "error",
        "name": "PaperManager__ItemId",
        "inputs": [
          {
            "type": "string",
            "name": "message"
          }
        ]
      },
      {
        "type": "error",
        "name": "PaperManager__SetRegistrationFee",
        "inputs": [
          {
            "type": "string",
            "name": "message"
          }
        ]
      },
      {
        "type": "event",
        "anonymous": false,
        "name": "EvPaperItem",
        "inputs": [
          {
            "type": "uint256",
            "name": "itemId",
            "indexed": true
          },
          {
            "type": "address",
            "name": "nftContract",
            "indexed": true
          },
          {
            "type": "string",
            "name": "title",
            "indexed": false
          },
          {
            "type": "string",
            "name": "ownerName",
            "indexed": false
          },
          {
            "type": "address",
            "name": "owner",
            "indexed": false
          },
          {
            "type": "uint256",
            "name": "createAt",
            "indexed": false
          },
          {
            "type": "bool",
            "name": "closed",
            "indexed": false
          }
        ]
      },
      {
        "type": "function",
        "name": "closePaper",
        "constant": false,
        "payable": false,
        "gas": 29000000,
        "inputs": [
          {
            "type": "address",
            "name": "nftContract"
          },
          {
            "type": "uint256",
            "name": "itemId"
          }
        ],
        "outputs": []
      },
      {
        "type": "function",
        "name": "countOwnersPaperItems",
        "constant": true,
        "stateMutability": "view",
        "payable": false,
        "gas": 29000000,
        "inputs": [
          {
            "type": "uint256",
            "name": "totalItemsCount"
          }
        ],
        "outputs": [
          {
            "type": "uint256"
          }
        ]
      },
      {
        "type": "function",
        "name": "createPaperItem",
        "constant": false,
        "payable": false,
        "gas": 29000000,
        "inputs": [
          {
            "type": "string",
            "name": "pTitle"
          },
          {
            "type": "string",
            "name": "pSymbolName"
          },
          {
            "type": "string",
            "name": "pOwnerName"
          }
        ],
        "outputs": []
      },
      {
        "type": "function",
        "name": "fetchPaperItems",
        "constant": true,
        "stateMutability": "view",
        "payable": false,
        "gas": 29000000,
        "inputs": [
          {
            "type": "uint256",
            "name": "offset"
          },
          {
            "type": "uint256",
            "name": "limit"
          },
          {
            "type": "uint256",
            "name": "close"
          }
        ],
        "outputs": [
          {
            "type": "tuple[]",
            "components": [
              {
                "type": "uint256",
                "name": "itemId"
              },
              {
                "type": "address",
                "name": "nftContract"
              },
              {
                "type": "string",
                "name": "title"
              },
              {
                "type": "string",
                "name": "ownerName"
              },
              {
                "type": "address",
                "name": "owner"
              },
              {
                "type": "uint256",
                "name": "createAt"
              },
              {
                "type": "bool",
                "name": "closed"
              }
            ]
          },
          {
            "type": "uint256",
            "name": "nextOffset"
          },
          {
            "type": "uint256",
            "name": "totalClosed"
          }
        ]
      },
      {
        "type": "function",
        "name": "fetchPaperItemsByTime",
        "constant": true,
        "stateMutability": "view",
        "payable": false,
        "gas": 29000000,
        "inputs": [
          {
            "type": "uint256",
            "name": "time"
          },
          {
            "type": "uint256",
            "name": "limit"
          }
        ],
        "outputs": [
          {
            "type": "tuple[]",
            "components": [
              {
                "type": "uint256",
                "name": "itemId"
              },
              {
                "type": "address",
                "name": "nftContract"
              },
              {
                "type": "string",
                "name": "title"
              },
              {
                "type": "string",
                "name": "ownerName"
              },
              {
                "type": "address",
                "name": "owner"
              },
              {
                "type": "uint256",
                "name": "createAt"
              },
              {
                "type": "bool",
                "name": "closed"
              }
            ]
          }
        ]
      },
      {
        "type": "function",
        "name": "getOwner",
        "constant": true,
        "stateMutability": "view",
        "payable": false,
        "gas": 29000000,
        "inputs": [],
        "outputs": [
          {
            "type": "address"
          }
        ]
      },
      {
        "type": "function",
        "name": "getPaperItemById",
        "constant": true,
        "stateMutability": "view",
        "payable": false,
        "gas": 29000000,
        "inputs": [
          {
            "type": "uint256",
            "name": "_id"
          }
        ],
        "outputs": [
          {
            "type": "tuple",
            "components": [
              {
                "type": "uint256",
                "name": "itemId"
              },
              {
                "type": "address",
                "name": "nftContract"
              },
              {
                "type": "string",
                "name": "title"
              },
              {
                "type": "string",
                "name": "ownerName"
              },
              {
                "type": "address",
                "name": "owner"
              },
              {
                "type": "uint256",
                "name": "createAt"
              },
              {
                "type": "bool",
                "name": "closed"
              }
            ]
          }
        ]
      },
      {
        "type": "function",
        "name": "getPaperItems",
        "constant": true,
        "stateMutability": "view",
        "payable": false,
        "gas": 29000000,
        "inputs": [],
        "outputs": [
          {
            "type": "tuple[]",
            "components": [
              {
                "type": "uint256",
                "name": "itemId"
              },
              {
                "type": "address",
                "name": "nftContract"
              },
              {
                "type": "string",
                "name": "title"
              },
              {
                "type": "string",
                "name": "ownerName"
              },
              {
                "type": "address",
                "name": "owner"
              },
              {
                "type": "uint256",
                "name": "createAt"
              },
              {
                "type": "bool",
                "name": "closed"
              }
            ]
          }
        ]
      },
      {
        "type": "function",
        "name": "getPaperItemsByOwner",
        "constant": true,
        "stateMutability": "view",
        "payable": false,
        "gas": 29000000,
        "inputs": [],
        "outputs": [
          {
            "type": "tuple[]",
            "components": [
              {
                "type": "uint256",
                "name": "itemId"
              },
              {
                "type": "address",
                "name": "nftContract"
              },
              {
                "type": "string",
                "name": "title"
              },
              {
                "type": "string",
                "name": "ownerName"
              },
              {
                "type": "address",
                "name": "owner"
              },
              {
                "type": "uint256",
                "name": "createAt"
              },
              {
                "type": "bool",
                "name": "closed"
              }
            ]
          }
        ]
      },
      {
        "type": "function",
        "name": "getRegistrationFee",
        "constant": true,
        "stateMutability": "view",
        "payable": false,
        "gas": 29000000,
        "inputs": [],
        "outputs": [
          {
            "type": "uint256"
          }
        ]
      },
      {
        "type": "function",
        "name": "getTotalPaperItems",
        "constant": true,
        "stateMutability": "view",
        "payable": false,
        "gas": 29000000,
        "inputs": [],
        "outputs": [
          {
            "type": "uint256",
            "name": "total"
          }
        ]
      },
      {
        "type": "function",
        "name": "setRegistrationFee",
        "constant": false,
        "payable": false,
        "gas": 29000000,
        "inputs": [
          {
            "type": "uint256",
            "name": "_price"
          }
        ],
        "outputs": []
      }
    ]
  },
  "80001": {
    "address": "0x8C3e62Ab55F4a93EF91353f12f3bC8672B27D965",
    "abi": [
      {
        "type": "constructor",
        "payable": false,
        "inputs": []
      },
      {
        "type": "error",
        "name": "PaperManager__Error",
        "inputs": [
          {
            "type": "string",
            "name": "caller"
          },
          {
            "type": "string",
            "name": "message"
          }
        ]
      },
      {
        "type": "error",
        "name": "PaperManager__ItemId",
        "inputs": [
          {
            "type": "string",
            "name": "message"
          }
        ]
      },
      {
        "type": "error",
        "name": "PaperManager__SetRegistrationFee",
        "inputs": [
          {
            "type": "string",
            "name": "message"
          }
        ]
      },
      {
        "type": "event",
        "anonymous": false,
        "name": "EvPaperItem",
        "inputs": [
          {
            "type": "uint256",
            "name": "itemId",
            "indexed": true
          },
          {
            "type": "address",
            "name": "nftContract",
            "indexed": true
          },
          {
            "type": "string",
            "name": "title",
            "indexed": false
          },
          {
            "type": "string",
            "name": "ownerName",
            "indexed": false
          },
          {
            "type": "address",
            "name": "owner",
            "indexed": false
          },
          {
            "type": "uint256",
            "name": "createAt",
            "indexed": false
          },
          {
            "type": "bool",
            "name": "closed",
            "indexed": false
          }
        ]
      },
      {
        "type": "function",
        "name": "closePaper",
        "constant": false,
        "payable": false,
        "inputs": [
          {
            "type": "address",
            "name": "nftContract"
          },
          {
            "type": "uint256",
            "name": "itemId"
          }
        ],
        "outputs": []
      },
      {
        "type": "function",
        "name": "countOwnersPaperItems",
        "constant": true,
        "stateMutability": "view",
        "payable": false,
        "inputs": [
          {
            "type": "uint256",
            "name": "totalItemsCount"
          }
        ],
        "outputs": [
          {
            "type": "uint256"
          }
        ]
      },
      {
        "type": "function",
        "name": "createPaperItem",
        "constant": false,
        "payable": false,
        "inputs": [
          {
            "type": "string",
            "name": "pTitle"
          },
          {
            "type": "string",
            "name": "pSymbolName"
          },
          {
            "type": "string",
            "name": "pOwnerName"
          }
        ],
        "outputs": []
      },
      {
        "type": "function",
        "name": "fetchPaperItems",
        "constant": true,
        "stateMutability": "view",
        "payable": false,
        "inputs": [
          {
            "type": "uint256",
            "name": "offset"
          },
          {
            "type": "uint256",
            "name": "limit"
          },
          {
            "type": "uint256",
            "name": "close"
          }
        ],
        "outputs": [
          {
            "type": "tuple[]",
            "components": [
              {
                "type": "uint256",
                "name": "itemId"
              },
              {
                "type": "address",
                "name": "nftContract"
              },
              {
                "type": "string",
                "name": "title"
              },
              {
                "type": "string",
                "name": "ownerName"
              },
              {
                "type": "address",
                "name": "owner"
              },
              {
                "type": "uint256",
                "name": "createAt"
              },
              {
                "type": "bool",
                "name": "closed"
              }
            ]
          },
          {
            "type": "uint256",
            "name": "nextOffset"
          },
          {
            "type": "uint256",
            "name": "totalClosed"
          }
        ]
      },
      {
        "type": "function",
        "name": "fetchPaperItemsByTime",
        "constant": true,
        "stateMutability": "view",
        "payable": false,
        "inputs": [
          {
            "type": "uint256",
            "name": "time"
          },
          {
            "type": "uint256",
            "name": "limit"
          }
        ],
        "outputs": [
          {
            "type": "tuple[]",
            "components": [
              {
                "type": "uint256",
                "name": "itemId"
              },
              {
                "type": "address",
                "name": "nftContract"
              },
              {
                "type": "string",
                "name": "title"
              },
              {
                "type": "string",
                "name": "ownerName"
              },
              {
                "type": "address",
                "name": "owner"
              },
              {
                "type": "uint256",
                "name": "createAt"
              },
              {
                "type": "bool",
                "name": "closed"
              }
            ]
          }
        ]
      },
      {
        "type": "function",
        "name": "getOwner",
        "constant": true,
        "stateMutability": "view",
        "payable": false,
        "inputs": [],
        "outputs": [
          {
            "type": "address"
          }
        ]
      },
      {
        "type": "function",
        "name": "getPaperItemById",
        "constant": true,
        "stateMutability": "view",
        "payable": false,
        "inputs": [
          {
            "type": "uint256",
            "name": "_id"
          }
        ],
        "outputs": [
          {
            "type": "tuple",
            "components": [
              {
                "type": "uint256",
                "name": "itemId"
              },
              {
                "type": "address",
                "name": "nftContract"
              },
              {
                "type": "string",
                "name": "title"
              },
              {
                "type": "string",
                "name": "ownerName"
              },
              {
                "type": "address",
                "name": "owner"
              },
              {
                "type": "uint256",
                "name": "createAt"
              },
              {
                "type": "bool",
                "name": "closed"
              }
            ]
          }
        ]
      },
      {
        "type": "function",
        "name": "getPaperItems",
        "constant": true,
        "stateMutability": "view",
        "payable": false,
        "inputs": [],
        "outputs": [
          {
            "type": "tuple[]",
            "components": [
              {
                "type": "uint256",
                "name": "itemId"
              },
              {
                "type": "address",
                "name": "nftContract"
              },
              {
                "type": "string",
                "name": "title"
              },
              {
                "type": "string",
                "name": "ownerName"
              },
              {
                "type": "address",
                "name": "owner"
              },
              {
                "type": "uint256",
                "name": "createAt"
              },
              {
                "type": "bool",
                "name": "closed"
              }
            ]
          }
        ]
      },
      {
        "type": "function",
        "name": "getPaperItemsByOwner",
        "constant": true,
        "stateMutability": "view",
        "payable": false,
        "inputs": [],
        "outputs": [
          {
            "type": "tuple[]",
            "components": [
              {
                "type": "uint256",
                "name": "itemId"
              },
              {
                "type": "address",
                "name": "nftContract"
              },
              {
                "type": "string",
                "name": "title"
              },
              {
                "type": "string",
                "name": "ownerName"
              },
              {
                "type": "address",
                "name": "owner"
              },
              {
                "type": "uint256",
                "name": "createAt"
              },
              {
                "type": "bool",
                "name": "closed"
              }
            ]
          }
        ]
      },
      {
        "type": "function",
        "name": "getRegistrationFee",
        "constant": true,
        "stateMutability": "view",
        "payable": false,
        "inputs": [],
        "outputs": [
          {
            "type": "uint256"
          }
        ]
      },
      {
        "type": "function",
        "name": "getTotalPaperItems",
        "constant": true,
        "stateMutability": "view",
        "payable": false,
        "inputs": [],
        "outputs": [
          {
            "type": "uint256",
            "name": "total"
          }
        ]
      },
      {
        "type": "function",
        "name": "setRegistrationFee",
        "constant": false,
        "payable": false,
        "inputs": [
          {
            "type": "uint256",
            "name": "_price"
          }
        ],
        "outputs": []
      }
    ]
  },
  "_format": "hh-sol-artifact-1",
  "contractName": "PaperManager",
  "sourceName": "contracts/PaperManager.sol",
  "abi": [
    {
      "inputs": [],
      "stateMutability": "nonpayable",
      "type": "constructor"
    },
    {
      "inputs": [
        {
          "internalType": "string",
          "name": "message",
          "type": "string"
        }
      ],
      "name": "PaperManager__ItemId",
      "type": "error"
    },
    {
      "inputs": [
        {
          "internalType": "uint256",
          "name": "required",
          "type": "uint256"
        },
        {
          "internalType": "string",
          "name": "message",
          "type": "string"
        }
      ],
      "name": "PaperManager__RegistrationFee",
      "type": "error"
    },
    {
      "inputs": [
        {
          "internalType": "string",
          "name": "message",
          "type": "string"
        }
      ],
      "name": "PaperManager__SetRegistrationFee",
      "type": "error"
    },
    {
      "anonymous": false,
      "inputs": [
        {
          "indexed": true,
          "internalType": "uint256",
          "name": "itemId",
          "type": "uint256"
        },
        {
          "indexed": true,
          "internalType": "address",
          "name": "nftContract",
          "type": "address"
        },
        {
          "indexed": false,
          "internalType": "address",
          "name": "owner",
          "type": "address"
        },
        {
          "indexed": false,
          "internalType": "uint256",
          "name": "createAt",
          "type": "uint256"
        },
        {
          "indexed": false,
          "internalType": "bool",
          "name": "closed",
          "type": "bool"
        }
      ],
      "name": "EvPaperItem",
      "type": "event"
    },
    {
      "inputs": [
        {
          "internalType": "address",
          "name": "nftContract",
          "type": "address"
        },
        {
          "internalType": "uint256",
          "name": "itemId",
          "type": "uint256"
        }
      ],
      "name": "closePaper",
      "outputs": [],
      "stateMutability": "nonpayable",
      "type": "function"
    },
    {
      "inputs": [
        {
          "internalType": "string",
          "name": "title",
          "type": "string"
        },
        {
          "internalType": "string",
          "name": "name",
          "type": "string"
        }
      ],
      "name": "createPaperItem",
      "outputs": [],
      "stateMutability": "payable",
      "type": "function"
    },
    {
      "inputs": [
        {
          "internalType": "uint256",
          "name": "offset",
          "type": "uint256"
        },
        {
          "internalType": "uint256",
          "name": "limit",
          "type": "uint256"
        },
        {
          "internalType": "uint256",
          "name": "close",
          "type": "uint256"
        }
      ],
      "name": "fetchPaperItems",
      "outputs": [
        {
          "components": [
            {
              "internalType": "uint256",
              "name": "itemId",
              "type": "uint256"
            },
            {
              "internalType": "address",
              "name": "nftContract",
              "type": "address"
            },
            {
              "internalType": "address payable",
              "name": "owner",
              "type": "address"
            },
            {
              "internalType": "uint256",
              "name": "createAt",
              "type": "uint256"
            },
            {
              "internalType": "bool",
              "name": "closed",
              "type": "bool"
            }
          ],
          "internalType": "struct PaperManager.PaperItem[]",
          "name": "",
          "type": "tuple[]"
        },
        {
          "internalType": "uint256",
          "name": "nextOffset",
          "type": "uint256"
        },
        {
          "internalType": "uint256",
          "name": "totalClosed",
          "type": "uint256"
        }
      ],
      "stateMutability": "view",
      "type": "function"
    },
    {
      "inputs": [
        {
          "internalType": "uint256",
          "name": "time",
          "type": "uint256"
        },
        {
          "internalType": "uint256",
          "name": "limit",
          "type": "uint256"
        }
      ],
      "name": "fetchPaperItemsByTime",
      "outputs": [
        {
          "components": [
            {
              "internalType": "uint256",
              "name": "itemId",
              "type": "uint256"
            },
            {
              "internalType": "address",
              "name": "nftContract",
              "type": "address"
            },
            {
              "internalType": "address payable",
              "name": "owner",
              "type": "address"
            },
            {
              "internalType": "uint256",
              "name": "createAt",
              "type": "uint256"
            },
            {
              "internalType": "bool",
              "name": "closed",
              "type": "bool"
            }
          ],
          "internalType": "struct PaperManager.PaperItem[]",
          "name": "",
          "type": "tuple[]"
        }
      ],
      "stateMutability": "view",
      "type": "function"
    },
    {
      "inputs": [],
      "name": "getOwner",
      "outputs": [
        {
          "internalType": "address",
          "name": "",
          "type": "address"
        }
      ],
      "stateMutability": "view",
      "type": "function"
    },
    {
      "inputs": [
        {
          "internalType": "uint256",
          "name": "_id",
          "type": "uint256"
        }
      ],
      "name": "getPaperItemById",
      "outputs": [
        {
          "components": [
            {
              "internalType": "uint256",
              "name": "itemId",
              "type": "uint256"
            },
            {
              "internalType": "address",
              "name": "nftContract",
              "type": "address"
            },
            {
              "internalType": "address payable",
              "name": "owner",
              "type": "address"
            },
            {
              "internalType": "uint256",
              "name": "createAt",
              "type": "uint256"
            },
            {
              "internalType": "bool",
              "name": "closed",
              "type": "bool"
            }
          ],
          "internalType": "struct PaperManager.PaperItem",
          "name": "",
          "type": "tuple"
        }
      ],
      "stateMutability": "view",
      "type": "function"
    },
    {
      "inputs": [],
      "name": "getPaperItems",
      "outputs": [
        {
          "components": [
            {
              "internalType": "uint256",
              "name": "itemId",
              "type": "uint256"
            },
            {
              "internalType": "address",
              "name": "nftContract",
              "type": "address"
            },
            {
              "internalType": "address payable",
              "name": "owner",
              "type": "address"
            },
            {
              "internalType": "uint256",
              "name": "createAt",
              "type": "uint256"
            },
            {
              "internalType": "bool",
              "name": "closed",
              "type": "bool"
            }
          ],
          "internalType": "struct PaperManager.PaperItem[]",
          "name": "",
          "type": "tuple[]"
        }
      ],
      "stateMutability": "view",
      "type": "function"
    },
    {
      "inputs": [],
      "name": "getPaperItemsByOwner",
      "outputs": [
        {
          "components": [
            {
              "internalType": "uint256",
              "name": "itemId",
              "type": "uint256"
            },
            {
              "internalType": "address",
              "name": "nftContract",
              "type": "address"
            },
            {
              "internalType": "address payable",
              "name": "owner",
              "type": "address"
            },
            {
              "internalType": "uint256",
              "name": "createAt",
              "type": "uint256"
            },
            {
              "internalType": "bool",
              "name": "closed",
              "type": "bool"
            }
          ],
          "internalType": "struct PaperManager.PaperItem[]",
          "name": "",
          "type": "tuple[]"
        }
      ],
      "stateMutability": "view",
      "type": "function"
    },
    {
      "inputs": [],
      "name": "getRegistrationFee",
      "outputs": [
        {
          "internalType": "uint256",
          "name": "",
          "type": "uint256"
        }
      ],
      "stateMutability": "view",
      "type": "function"
    },
    {
      "inputs": [],
      "name": "getTotalPaperItems",
      "outputs": [
        {
          "internalType": "uint256",
          "name": "total",
          "type": "uint256"
        }
      ],
      "stateMutability": "view",
      "type": "function"
    },
    {
      "inputs": [
        {
          "internalType": "uint256",
          "name": "_price",
          "type": "uint256"
        }
      ],
      "name": "setRegistrationFee",
      "outputs": [],
      "stateMutability": "nonpayable",
      "type": "function"
    }
  ],
  "bytecode": "0x608060405234801561001057600080fd5b50600160008190555033600360006101000a81548173ffffffffffffffffffffffffffffffffffffffff021916908373ffffffffffffffffffffffffffffffffffffffff16021790555066038d7ea4c6800060048190555061501d806100776000396000f3fe608060405260043610620000aa5760003560e01c80638efff303116200006d5780638efff30314620001c7578063b8f9109e14620001f7578063ba1f60f81462000217578063c320c727146200025d578063c7deb2e3146200028b578063d49b99b414620002b957620000aa565b80630946e80714620000af5780632082e76f14620000df57806343744a88146200010f57806346fcd9bc1462000153578063893d20e81462000197575b600080fd5b348015620000bc57600080fd5b50620000c7620002e9565b604051620000d691906200151e565b60405180910390f35b348015620000ec57600080fd5b50620000f7620002f3565b60405162000106919062001702565b60405180910390f35b3480156200011c57600080fd5b506200013b60048036038101906200013591906200176b565b62000541565b6040516200014a91906200180f565b60405180910390f35b3480156200016057600080fd5b506200017f60048036038101906200017991906200182c565b620006a9565b6040516200018e919062001702565b60405180910390f35b348015620001a457600080fd5b50620001af62000996565b604051620001be919062001884565b60405180910390f35b348015620001d457600080fd5b50620001df620009c0565b604051620001ee91906200151e565b60405180910390f35b6200021560048036038101906200020f919062001a03565b620009f6565b005b3480156200022457600080fd5b506200024360048036038101906200023d919062001a88565b62000c8c565b604051620002549392919062001ae4565b60405180910390f35b3480156200026a57600080fd5b506200028960048036038101906200028391906200176b565b62000f93565b005b3480156200029857600080fd5b50620002b76004803603810190620002b1919062001b59565b62001030565b005b348015620002c657600080fd5b50620002d162001134565b604051620002e0919062001702565b60405180910390f35b6000600454905090565b60606000620003036001620013b6565b90506000620003136002620013b6565b8262000320919062001bcf565b905060008167ffffffffffffffff811115620003415762000340620018bc565b5b6040519080825280602002602001820160405280156200037e57816020015b6200036a62001498565b815260200190600190039081620003605790505b5090506000805b84811015620005365760056000600183620003a1919062001c0a565b815260200190815260200160002060040160009054906101000a900460ff166200052057600060056000600184620003da919062001c0a565b81526020019081526020016000206000015490506000600560008381526020019081526020016000209050806040518060a0016040529081600082015481526020016001820160009054906101000a900473ffffffffffffffffffffffffffffffffffffffff1673ffffffffffffffffffffffffffffffffffffffff1673ffffffffffffffffffffffffffffffffffffffff1681526020016002820160009054906101000a900473ffffffffffffffffffffffffffffffffffffffff1673ffffffffffffffffffffffffffffffffffffffff1673ffffffffffffffffffffffffffffffffffffffff168152602001600382015481526020016004820160009054906101000a900460ff16151515158152505085858151811062000502576200050162001c67565b5b602002602001018190525083806200051a9062001c96565b94505050505b80806200052d9062001c96565b91505062000385565b508194505050505090565b6200054b62001498565b600182108015620005665750620005636001620013b6565b82115b15620005a9576040517fed898f65000000000000000000000000000000000000000000000000000000008152600401620005a09062001d45565b60405180910390fd5b600560008381526020019081526020016000206040518060a0016040529081600082015481526020016001820160009054906101000a900473ffffffffffffffffffffffffffffffffffffffff1673ffffffffffffffffffffffffffffffffffffffff1673ffffffffffffffffffffffffffffffffffffffff1681526020016002820160009054906101000a900473ffffffffffffffffffffffffffffffffffffffff1673ffffffffffffffffffffffffffffffffffffffff1673ffffffffffffffffffffffffffffffffffffffff168152602001600382015481526020016004820160009054906101000a900460ff1615151515815250509050919050565b60606000620006b96001620013b6565b90506000620006c96002620013b6565b82620006d6919062001bcf565b90506000600282620006e9919062001bcf565b90506000851415620006fa57600194505b808262000708919062001bcf565b851115620007215780826200071e919062001bcf565b94505b60008567ffffffffffffffff81111562000740576200073f620018bc565b5b6040519080825280602002602001820160405280156200077d57816020015b6200076962001498565b8152602001906001900390816200075f5790505b5090506000805b85811080156200079357508782105b1562000987576005600060018387620007ad919062001c0a565b620007b9919062001c0a565b815260200190815260200160002060040160009054906101000a900460ff16620009715760006005600060018488620007f3919062001c0a565b620007ff919062001c0a565b8152602001908152602001600020600001549050600060056000838152602001908152602001600020905060008b14806200084f5750428160030154111580156200084e57508a816003015410155b5b156200096e57806040518060a0016040529081600082015481526020016001820160009054906101000a900473ffffffffffffffffffffffffffffffffffffffff1673ffffffffffffffffffffffffffffffffffffffff1673ffffffffffffffffffffffffffffffffffffffff1681526020016002820160009054906101000a900473ffffffffffffffffffffffffffffffffffffffff1673ffffffffffffffffffffffffffffffffffffffff1673ffffffffffffffffffffffffffffffffffffffff168152602001600382015481526020016004820160009054906101000a900460ff16151515158152505085858151811062000952576200095162001c67565b5b602002602001018190525083806200096a9062001c96565b9450505b50505b80806200097e9062001c96565b91505062000784565b50819550505050505092915050565b6000600360009054906101000a900473ffffffffffffffffffffffffffffffffffffffff16905090565b600080620009cf6001620013b6565b90506000620009df6002620013b6565b82620009ec919062001bcf565b9050809250505090565b6002600054141562000a3f576040517f08c379a000000000000000000000000000000000000000000000000000000000815260040162000a369062001db7565b60405180910390fd5b600260008190555060045434101562000a93576004546040517f7f7d93cd00000000000000000000000000000000000000000000000000000000815260040162000a8a919062001e29565b60405180910390fd5b62000a9f6001620013c4565b600062000aad6001620013b6565b905060004290506000848460405162000ac690620014f5565b62000ad392919062001edd565b604051809103906000f08015801562000af0573d6000803e3d6000fd5b50905060008190506040518060a001604052808581526020018273ffffffffffffffffffffffffffffffffffffffff1681526020013373ffffffffffffffffffffffffffffffffffffffff16815260200184815260200160001515815250600560008681526020019081526020016000206000820151816000015560208201518160010160006101000a81548173ffffffffffffffffffffffffffffffffffffffff021916908373ffffffffffffffffffffffffffffffffffffffff16021790555060408201518160020160006101000a81548173ffffffffffffffffffffffffffffffffffffffff021916908373ffffffffffffffffffffffffffffffffffffffff1602179055506060820151816003015560808201518160040160006101000a81548160ff0219169083151502179055509050508073ffffffffffffffffffffffffffffffffffffffff16847fe378e0f679923ac26cd90b0bf7b20cfc4213bafad7ead1a4a84330454b2bbc0b3386600060405162000c749392919062001f29565b60405180910390a35050505060016000819055505050565b6060600080600062000c9f6001620013b6565b9050600062000caf6002620013b6565b8262000cbc919062001bcf565b9050600087141562000ccd57600196505b878162000cdb919062001bcf565b87111562000cf457878162000cf1919062001bcf565b96505b60008767ffffffffffffffff81111562000d135762000d12620018bc565b5b60405190808252806020026020018201604052801562000d5057816020015b62000d3c62001498565b81526020019060019003908162000d325790505b5090506000806000805b868110801562000d6957508b84105b1562000f455760018b828f62000d80919062001c0a565b62000d8c919062001c0a565b62000d98919062001c0a565b925086831162000f2f576005600084815260200190815260200160002060040160009054906101000a900460ff1662000f1d576000600560008581526020019081526020016000206000015490506000600560008381526020019081526020016000209050806040518060a0016040529081600082015481526020016001820160009054906101000a900473ffffffffffffffffffffffffffffffffffffffff1673ffffffffffffffffffffffffffffffffffffffff1673ffffffffffffffffffffffffffffffffffffffff1681526020016002820160009054906101000a900473ffffffffffffffffffffffffffffffffffffffff1673ffffffffffffffffffffffffffffffffffffffff1673ffffffffffffffffffffffffffffffffffffffff168152602001600382015481526020016004820160009054906101000a900460ff16151515158152505087878151811062000efa5762000ef962001c67565b5b6020026020010181905250858062000f129062001c96565b965050505062000f2e565b818062000f2a9062001c96565b9250505b5b808062000f3c9062001c96565b91505062000d5a565b508560018b8e62000f57919062001c0a565b62000f63919062001c0a565b111562000f6e578990505b838b8d62000f7d919062001c0a565b8298509850985050505050505093509350939050565b600360009054906101000a900473ffffffffffffffffffffffffffffffffffffffff1673ffffffffffffffffffffffffffffffffffffffff163373ffffffffffffffffffffffffffffffffffffffff161462001026576040517fa81ffd620000000000000000000000000000000000000000000000000000000081526004016200101d9062001d45565b60405180910390fd5b8060048190555050565b6002600054141562001079576040517f08c379a0000000000000000000000000000000000000000000000000000000008152600401620010709062001db7565b60405180910390fd5b600260008190555060016005600083815260200190815260200160002060040160006101000a81548160ff021916908315150217905550620010bc6002620013c4565b8173ffffffffffffffffffffffffffffffffffffffff16817fe378e0f679923ac26cd90b0bf7b20cfc4213bafad7ead1a4a84330454b2bbc0b3360056000868152602001908152602001600020600301546001604051620011209392919062001f29565b60405180910390a360016000819055505050565b60606000620011446001620013b6565b905060006200115382620013da565b90506000808267ffffffffffffffff811115620011755762001174620018bc565b5b604051908082528060200260200182016040528015620011b257816020015b6200119e62001498565b815260200190600190039081620011945790505b50905060005b84811015620013ab573373ffffffffffffffffffffffffffffffffffffffff1660056000600184620011eb919062001c0a565b815260200190815260200160002060020160009054906101000a900473ffffffffffffffffffffffffffffffffffffffff1673ffffffffffffffffffffffffffffffffffffffff16141562001395576000600560006001846200124f919062001c0a565b81526020019081526020016000206000015490506000600560008381526020019081526020016000209050806040518060a0016040529081600082015481526020016001820160009054906101000a900473ffffffffffffffffffffffffffffffffffffffff1673ffffffffffffffffffffffffffffffffffffffff1673ffffffffffffffffffffffffffffffffffffffff1681526020016002820160009054906101000a900473ffffffffffffffffffffffffffffffffffffffff1673ffffffffffffffffffffffffffffffffffffffff1673ffffffffffffffffffffffffffffffffffffffff168152602001600382015481526020016004820160009054906101000a900460ff16151515158152505084868151811062001377576200137662001c67565b5b602002602001018190525084806200138f9062001c96565b95505050505b8080620013a29062001c96565b915050620011b8565b508094505050505090565b600081600001549050919050565b6001816000016000828254019250508190555050565b6000806000905060005b838110156200148e573373ffffffffffffffffffffffffffffffffffffffff166005600060018462001417919062001c0a565b815260200190815260200160002060020160009054906101000a900473ffffffffffffffffffffffffffffffffffffffff1673ffffffffffffffffffffffffffffffffffffffff161415620014785760018262001475919062001c0a565b91505b8080620014859062001c96565b915050620013e4565b5080915050919050565b6040518060a0016040528060008152602001600073ffffffffffffffffffffffffffffffffffffffff168152602001600073ffffffffffffffffffffffffffffffffffffffff168152602001600081526020016000151581525090565b6130818062001f6783390190565b6000819050919050565b620015188162001503565b82525050565b60006020820190506200153560008301846200150d565b92915050565b600081519050919050565b600082825260208201905092915050565b6000819050602082019050919050565b620015728162001503565b82525050565b600073ffffffffffffffffffffffffffffffffffffffff82169050919050565b6000620015a58262001578565b9050919050565b620015b78162001598565b82525050565b6000620015ca8262001578565b9050919050565b620015dc81620015bd565b82525050565b60008115159050919050565b620015f981620015e2565b82525050565b60a08201600082015162001617600085018262001567565b5060208201516200162c6020850182620015ac565b506040820151620016416040850182620015d1565b50606082015162001656606085018262001567565b5060808201516200166b6080850182620015ee565b50505050565b60006200167f8383620015ff565b60a08301905092915050565b6000602082019050919050565b6000620016a5826200153b565b620016b1818562001546565b9350620016be8362001557565b8060005b83811015620016f5578151620016d9888262001671565b9750620016e6836200168b565b925050600181019050620016c2565b5085935050505092915050565b600060208201905081810360008301526200171e818462001698565b905092915050565b6000604051905090565b600080fd5b600080fd5b620017458162001503565b81146200175157600080fd5b50565b60008135905062001765816200173a565b92915050565b60006020828403121562001784576200178362001730565b5b6000620017948482850162001754565b91505092915050565b60a082016000820151620017b5600085018262001567565b506020820151620017ca6020850182620015ac565b506040820151620017df6040850182620015d1565b506060820151620017f4606085018262001567565b506080820151620018096080850182620015ee565b50505050565b600060a0820190506200182660008301846200179d565b92915050565b6000806040838503121562001846576200184562001730565b5b6000620018568582860162001754565b9250506020620018698582860162001754565b9150509250929050565b6200187e8162001598565b82525050565b60006020820190506200189b600083018462001873565b92915050565b600080fd5b600080fd5b6000601f19601f8301169050919050565b7f4e487b7100000000000000000000000000000000000000000000000000000000600052604160045260246000fd5b620018f682620018ab565b810181811067ffffffffffffffff82111715620019185762001917620018bc565b5b80604052505050565b60006200192d62001726565b90506200193b8282620018eb565b919050565b600067ffffffffffffffff8211156200195e576200195d620018bc565b5b6200196982620018ab565b9050602081019050919050565b82818337600083830152505050565b60006200199c620019968462001940565b62001921565b905082815260208101848484011115620019bb57620019ba620018a6565b5b620019c884828562001976565b509392505050565b600082601f830112620019e857620019e7620018a1565b5b8135620019fa84826020860162001985565b91505092915050565b6000806040838503121562001a1d5762001a1c62001730565b5b600083013567ffffffffffffffff81111562001a3e5762001a3d62001735565b5b62001a4c85828601620019d0565b925050602083013567ffffffffffffffff81111562001a705762001a6f62001735565b5b62001a7e85828601620019d0565b9150509250929050565b60008060006060848603121562001aa45762001aa362001730565b5b600062001ab48682870162001754565b935050602062001ac78682870162001754565b925050604062001ada8682870162001754565b9150509250925092565b6000606082019050818103600083015262001b00818662001698565b905062001b1160208301856200150d565b62001b2060408301846200150d565b949350505050565b62001b338162001598565b811462001b3f57600080fd5b50565b60008135905062001b538162001b28565b92915050565b6000806040838503121562001b735762001b7262001730565b5b600062001b838582860162001b42565b925050602062001b968582860162001754565b9150509250929050565b7f4e487b7100000000000000000000000000000000000000000000000000000000600052601160045260246000fd5b600062001bdc8262001503565b915062001be98362001503565b92508282101562001bff5762001bfe62001ba0565b5b828203905092915050565b600062001c178262001503565b915062001c248362001503565b9250827fffffffffffffffffffffffffffffffffffffffffffffffffffffffffffffffff0382111562001c5c5762001c5b62001ba0565b5b828201905092915050565b7f4e487b7100000000000000000000000000000000000000000000000000000000600052603260045260246000fd5b600062001ca38262001503565b91507fffffffffffffffffffffffffffffffffffffffffffffffffffffffffffffffff82141562001cd95762001cd862001ba0565b5b600182019050919050565b600082825260208201905092915050565b7f5072656d697373696f6e2064656e696564000000000000000000000000000000600082015250565b600062001d2d60118362001ce4565b915062001d3a8262001cf5565b602082019050919050565b6000602082019050818103600083015262001d608162001d1e565b9050919050565b7f5265656e7472616e637947756172643a207265656e7472616e742063616c6c00600082015250565b600062001d9f601f8362001ce4565b915062001dac8262001d67565b602082019050919050565b6000602082019050818103600083015262001dd28162001d90565b9050919050565b7f796f75206d7573742070617920726567697374726174696f6e206665652e0000600082015250565b600062001e11601e8362001ce4565b915062001e1e8262001dd9565b602082019050919050565b600060408201905062001e4060008301846200150d565b818103602083015262001e538162001e02565b905092915050565b600081519050919050565b60005b8381101562001e8657808201518184015260208101905062001e69565b8381111562001e96576000848401525b50505050565b600062001ea98262001e5b565b62001eb5818562001ce4565b935062001ec781856020860162001e66565b62001ed281620018ab565b840191505092915050565b6000604082019050818103600083015262001ef9818562001e9c565b9050818103602083015262001f0f818462001e9c565b90509392505050565b62001f2381620015e2565b82525050565b600060608201905062001f40600083018662001873565b62001f4f60208301856200150d565b62001f5e604083018462001f18565b94935050505056fe60806040523480156200001157600080fd5b5060405162003081380380620030818339818101604052810190620000379190620002c2565b818181600090805190602001906200005192919062000075565b5080600190805190602001906200006a92919062000075565b5050505050620003ac565b828054620000839062000376565b90600052602060002090601f016020900481019282620000a75760008555620000f3565b82601f10620000c257805160ff1916838001178555620000f3565b82800160010185558215620000f3579182015b82811115620000f2578251825591602001919060010190620000d5565b5b50905062000102919062000106565b5090565b5b808211156200012157600081600090555060010162000107565b5090565b6000604051905090565b600080fd5b600080fd5b600080fd5b600080fd5b6000601f19601f8301169050919050565b7f4e487b7100000000000000000000000000000000000000000000000000000000600052604160045260246000fd5b6200018e8262000143565b810181811067ffffffffffffffff82111715620001b057620001af62000154565b5b80604052505050565b6000620001c562000125565b9050620001d3828262000183565b919050565b600067ffffffffffffffff821115620001f657620001f562000154565b5b620002018262000143565b9050602081019050919050565b60005b838110156200022e57808201518184015260208101905062000211565b838111156200023e576000848401525b50505050565b60006200025b6200025584620001d8565b620001b9565b9050828152602081018484840111156200027a57620002796200013e565b5b620002878482856200020e565b509392505050565b600082601f830112620002a757620002a662000139565b5b8151620002b984826020860162000244565b91505092915050565b60008060408385031215620002dc57620002db6200012f565b5b600083015167ffffffffffffffff811115620002fd57620002fc62000134565b5b6200030b858286016200028f565b925050602083015167ffffffffffffffff8111156200032f576200032e62000134565b5b6200033d858286016200028f565b9150509250929050565b7f4e487b7100000000000000000000000000000000000000000000000000000000600052602260045260246000fd5b600060028204905060018216806200038f57607f821691505b60208210811415620003a657620003a562000347565b5b50919050565b612cc580620003bc6000396000f3fe608060405234801561001057600080fd5b506004361061010b5760003560e01c806342842e0e116100a2578063a22cb46511610071578063a22cb465146102de578063b873722b146102fa578063b88d4fde1461032a578063c87b56dd14610346578063e985e9c5146103765761010b565b806342842e0e146102445780636352211e1461026057806370a082311461029057806395d89b41146102c05761010b565b8063123bfbb4116100de578063123bfbb4146101aa57806315a9b1d2146101da57806323b872dd146101f857806333eba49a146102145761010b565b806301ffc9a71461011057806306fdde0314610140578063081812fc1461015e578063095ea7b31461018e575b600080fd5b61012a60048036038101906101259190611ad2565b6103a6565b6040516101379190611b1a565b60405180910390f35b610148610488565b6040516101559190611bce565b60405180910390f35b61017860048036038101906101739190611c26565b61051a565b6040516101859190611c94565b60405180910390f35b6101a860048036038101906101a39190611cdb565b610560565b005b6101c460048036038101906101bf9190611c26565b610678565b6040516101d19190611bce565b60405180910390f35b6101e261068a565b6040516101ef9190611e73565b60405180910390f35b610212600480360381019061020d9190611e95565b610774565b005b61022e6004803603810190610229919061201d565b6107d4565b60405161023b9190612075565b60405180910390f35b61025e60048036038101906102599190611e95565b610842565b005b61027a60048036038101906102759190611c26565b610862565b6040516102879190611c94565b60405180910390f35b6102aa60048036038101906102a59190612090565b610914565b6040516102b79190612075565b60405180910390f35b6102c86109cc565b6040516102d59190611bce565b60405180910390f35b6102f860048036038101906102f391906120e9565b610a5e565b005b610314600480360381019061030f9190612129565b610a74565b6040516103219190612075565b60405180910390f35b610344600480360381019061033f9190612226565b610ae3565b005b610360600480360381019061035b9190611c26565b610b45565b60405161036d9190611bce565b60405180910390f35b610390600480360381019061038b91906122a9565b610c58565b60405161039d9190611b1a565b60405180910390f35b60007f80ac58cd000000000000000000000000000000000000000000000000000000007bffffffffffffffffffffffffffffffffffffffffffffffffffffffff1916827bffffffffffffffffffffffffffffffffffffffffffffffffffffffff1916148061047157507f5b5e139f000000000000000000000000000000000000000000000000000000007bffffffffffffffffffffffffffffffffffffffffffffffffffffffff1916827bffffffffffffffffffffffffffffffffffffffffffffffffffffffff1916145b80610481575061048082610cec565b5b9050919050565b60606000805461049790612318565b80601f01602080910402602001604051908101604052809291908181526020018280546104c390612318565b80156105105780601f106104e557610100808354040283529160200191610510565b820191906000526020600020905b8154815290600101906020018083116104f357829003601f168201915b5050505050905090565b600061052582610d56565b6004600083815260200190815260200160002060009054906101000a900473ffffffffffffffffffffffffffffffffffffffff169050919050565b600061056b82610862565b90508073ffffffffffffffffffffffffffffffffffffffff168373ffffffffffffffffffffffffffffffffffffffff1614156105dc576040517f08c379a00000000000000000000000000000000000000000000000000000000081526004016105d3906123bc565b60405180910390fd5b8073ffffffffffffffffffffffffffffffffffffffff166105fb610da1565b73ffffffffffffffffffffffffffffffffffffffff16148061062a575061062981610624610da1565b610c58565b5b610669576040517f08c379a00000000000000000000000000000000000000000000000000000000081526004016106609061244e565b60405180910390fd5b6106738383610da9565b505050565b606061068382610b45565b9050919050565b606060006106986007610e62565b905060008167ffffffffffffffff8111156106b6576106b5611ef2565b5b6040519080825280602002602001820160405280156106ef57816020015b6106dc6119a9565b8152602001906001900390816106d45790505b50905060005b8281101561076b576107056119a9565b600182610712919061249d565b81600001818152505061073060018361072b919061249d565b610b45565b81602001819052508083838151811061074c5761074b6124f3565b5b602002602001018190525050808061076390612522565b9150506106f5565b50809250505090565b61078561077f610da1565b82610e70565b6107c4576040517f08c379a00000000000000000000000000000000000000000000000000000000081526004016107bb906125dd565b60405180910390fd5b6107cf838383610f05565b505050565b60006107e0600761116c565b60006107ec6007610e62565b90506107f83382611182565b610802818461135c565b7f842da917f2f881beb56684152ed1cfe4e254849e7ec7aedbc21e490c45f7418d816040516108319190612075565b60405180910390a180915050919050565b61085d83838360405180602001604052806000815250610ae3565b505050565b6000806002600084815260200190815260200160002060009054906101000a900473ffffffffffffffffffffffffffffffffffffffff169050600073ffffffffffffffffffffffffffffffffffffffff168173ffffffffffffffffffffffffffffffffffffffff16141561090b576040517f08c379a000000000000000000000000000000000000000000000000000000000815260040161090290612649565b60405180910390fd5b80915050919050565b60008073ffffffffffffffffffffffffffffffffffffffff168273ffffffffffffffffffffffffffffffffffffffff161415610985576040517f08c379a000000000000000000000000000000000000000000000000000000000815260040161097c906126db565b60405180910390fd5b600360008373ffffffffffffffffffffffffffffffffffffffff1673ffffffffffffffffffffffffffffffffffffffff168152602001908152602001600020549050919050565b6060600180546109db90612318565b80601f0160208091040260200160405190810160405280929190818152602001828054610a0790612318565b8015610a545780601f10610a2957610100808354040283529160200191610a54565b820191906000526020600020905b815481529060010190602001808311610a3757829003601f168201915b5050505050905090565b610a70610a69610da1565b83836113d0565b5050565b6000610a80600761116c565b6000610a8c6007610e62565b9050610a988482611182565b610aa2818461135c565b7f851d264e8bf6090bbb8c393ca250ac6bb027af31c15be92f6d5f6025134c2efc81604051610ad19190612075565b60405180910390a18091505092915050565b610af4610aee610da1565b83610e70565b610b33576040517f08c379a0000000000000000000000000000000000000000000000000000000008152600401610b2a906125dd565b60405180910390fd5b610b3f8484848461153d565b50505050565b6060610b5082610d56565b6000600660008481526020019081526020016000208054610b7090612318565b80601f0160208091040260200160405190810160405280929190818152602001828054610b9c90612318565b8015610be95780601f10610bbe57610100808354040283529160200191610be9565b820191906000526020600020905b815481529060010190602001808311610bcc57829003601f168201915b505050505090506000610bfa611599565b9050600081511415610c10578192505050610c53565b600082511115610c45578082604051602001610c2d929190612737565b60405160208183030381529060405292505050610c53565b610c4e846115b0565b925050505b919050565b6000600560008473ffffffffffffffffffffffffffffffffffffffff1673ffffffffffffffffffffffffffffffffffffffff16815260200190815260200160002060008373ffffffffffffffffffffffffffffffffffffffff1673ffffffffffffffffffffffffffffffffffffffff16815260200190815260200160002060009054906101000a900460ff16905092915050565b60007f01ffc9a7000000000000000000000000000000000000000000000000000000007bffffffffffffffffffffffffffffffffffffffffffffffffffffffff1916827bffffffffffffffffffffffffffffffffffffffffffffffffffffffff1916149050919050565b610d5f81611618565b610d9e576040517f08c379a0000000000000000000000000000000000000000000000000000000008152600401610d9590612649565b60405180910390fd5b50565b600033905090565b816004600083815260200190815260200160002060006101000a81548173ffffffffffffffffffffffffffffffffffffffff021916908373ffffffffffffffffffffffffffffffffffffffff160217905550808273ffffffffffffffffffffffffffffffffffffffff16610e1c83610862565b73ffffffffffffffffffffffffffffffffffffffff167f8c5be1e5ebec7d5bd14f71427d1e84f3dd0314c0f7b2291e5b200ac8c7c3b92560405160405180910390a45050565b600081600001549050919050565b600080610e7c83610862565b90508073ffffffffffffffffffffffffffffffffffffffff168473ffffffffffffffffffffffffffffffffffffffff161480610ebe5750610ebd8185610c58565b5b80610efc57508373ffffffffffffffffffffffffffffffffffffffff16610ee48461051a565b73ffffffffffffffffffffffffffffffffffffffff16145b91505092915050565b8273ffffffffffffffffffffffffffffffffffffffff16610f2582610862565b73ffffffffffffffffffffffffffffffffffffffff1614610f7b576040517f08c379a0000000000000000000000000000000000000000000000000000000008152600401610f72906127cd565b60405180910390fd5b600073ffffffffffffffffffffffffffffffffffffffff168273ffffffffffffffffffffffffffffffffffffffff161415610feb576040517f08c379a0000000000000000000000000000000000000000000000000000000008152600401610fe29061285f565b60405180910390fd5b610ff6838383611684565b611001600082610da9565b6001600360008573ffffffffffffffffffffffffffffffffffffffff1673ffffffffffffffffffffffffffffffffffffffff1681526020019081526020016000206000828254611051919061287f565b925050819055506001600360008473ffffffffffffffffffffffffffffffffffffffff1673ffffffffffffffffffffffffffffffffffffffff16815260200190815260200160002060008282546110a8919061249d565b92505081905550816002600083815260200190815260200160002060006101000a81548173ffffffffffffffffffffffffffffffffffffffff021916908373ffffffffffffffffffffffffffffffffffffffff160217905550808273ffffffffffffffffffffffffffffffffffffffff168473ffffffffffffffffffffffffffffffffffffffff167fddf252ad1be2c89b69c2b068fc378daa952ba7f163c4a11628f55a4df523b3ef60405160405180910390a4611167838383611689565b505050565b6001816000016000828254019250508190555050565b600073ffffffffffffffffffffffffffffffffffffffff168273ffffffffffffffffffffffffffffffffffffffff1614156111f2576040517f08c379a00000000000000000000000000000000000000000000000000000000081526004016111e9906128ff565b60405180910390fd5b6111fb81611618565b1561123b576040517f08c379a00000000000000000000000000000000000000000000000000000000081526004016112329061296b565b60405180910390fd5b61124760008383611684565b6001600360008473ffffffffffffffffffffffffffffffffffffffff1673ffffffffffffffffffffffffffffffffffffffff1681526020019081526020016000206000828254611297919061249d565b92505081905550816002600083815260200190815260200160002060006101000a81548173ffffffffffffffffffffffffffffffffffffffff021916908373ffffffffffffffffffffffffffffffffffffffff160217905550808273ffffffffffffffffffffffffffffffffffffffff16600073ffffffffffffffffffffffffffffffffffffffff167fddf252ad1be2c89b69c2b068fc378daa952ba7f163c4a11628f55a4df523b3ef60405160405180910390a461135860008383611689565b5050565b61136582611618565b6113a4576040517f08c379a000000000000000000000000000000000000000000000000000000000815260040161139b906129fd565b60405180910390fd5b806006600084815260200190815260200160002090805190602001906113cb9291906119c3565b505050565b8173ffffffffffffffffffffffffffffffffffffffff168373ffffffffffffffffffffffffffffffffffffffff16141561143f576040517f08c379a000000000000000000000000000000000000000000000000000000000815260040161143690612a69565b60405180910390fd5b80600560008573ffffffffffffffffffffffffffffffffffffffff1673ffffffffffffffffffffffffffffffffffffffff16815260200190815260200160002060008473ffffffffffffffffffffffffffffffffffffffff1673ffffffffffffffffffffffffffffffffffffffff16815260200190815260200160002060006101000a81548160ff0219169083151502179055508173ffffffffffffffffffffffffffffffffffffffff168373ffffffffffffffffffffffffffffffffffffffff167f17307eab39ab6107e8899845ad3d59bd9653f200f220920489ca2b5937696c31836040516115309190611b1a565b60405180910390a3505050565b611548848484610f05565b6115548484848461168e565b611593576040517f08c379a000000000000000000000000000000000000000000000000000000000815260040161158a90612afb565b60405180910390fd5b50505050565b606060405180602001604052806000815250905090565b60606115bb82610d56565b60006115c5611599565b905060008151116115e55760405180602001604052806000815250611610565b806115ef84611825565b604051602001611600929190612737565b6040516020818303038152906040525b915050919050565b60008073ffffffffffffffffffffffffffffffffffffffff166002600084815260200190815260200160002060009054906101000a900473ffffffffffffffffffffffffffffffffffffffff1673ffffffffffffffffffffffffffffffffffffffff1614159050919050565b505050565b505050565b60006116af8473ffffffffffffffffffffffffffffffffffffffff16611986565b15611818578373ffffffffffffffffffffffffffffffffffffffff1663150b7a026116d8610da1565b8786866040518563ffffffff1660e01b81526004016116fa9493929190612b70565b602060405180830381600087803b15801561171457600080fd5b505af192505050801561174557506040513d601f19601f820116820180604052508101906117429190612bd1565b60015b6117c8573d8060008114611775576040519150601f19603f3d011682016040523d82523d6000602084013e61177a565b606091505b506000815114156117c0576040517f08c379a00000000000000000000000000000000000000000000000000000000081526004016117b790612afb565b60405180910390fd5b805181602001fd5b63150b7a0260e01b7bffffffffffffffffffffffffffffffffffffffffffffffffffffffff1916817bffffffffffffffffffffffffffffffffffffffffffffffffffffffff19161491505061181d565b600190505b949350505050565b6060600082141561186d576040518060400160405280600181526020017f30000000000000000000000000000000000000000000000000000000000000008152509050611981565b600082905060005b6000821461189f57808061188890612522565b915050600a826118989190612c2d565b9150611875565b60008167ffffffffffffffff8111156118bb576118ba611ef2565b5b6040519080825280601f01601f1916602001820160405280156118ed5781602001600182028036833780820191505090505b5090505b6000851461197a57600182611906919061287f565b9150600a856119159190612c5e565b6030611921919061249d565b60f81b818381518110611937576119366124f3565b5b60200101907effffffffffffffffffffffffffffffffffffffffffffffffffffffffffffff1916908160001a905350600a856119739190612c2d565b94506118f1565b8093505050505b919050565b6000808273ffffffffffffffffffffffffffffffffffffffff163b119050919050565b604051806040016040528060008152602001606081525090565b8280546119cf90612318565b90600052602060002090601f0160209004810192826119f15760008555611a38565b82601f10611a0a57805160ff1916838001178555611a38565b82800160010185558215611a38579182015b82811115611a37578251825591602001919060010190611a1c565b5b509050611a459190611a49565b5090565b5b80821115611a62576000816000905550600101611a4a565b5090565b6000604051905090565b600080fd5b600080fd5b60007fffffffff0000000000000000000000000000000000000000000000000000000082169050919050565b611aaf81611a7a565b8114611aba57600080fd5b50565b600081359050611acc81611aa6565b92915050565b600060208284031215611ae857611ae7611a70565b5b6000611af684828501611abd565b91505092915050565b60008115159050919050565b611b1481611aff565b82525050565b6000602082019050611b2f6000830184611b0b565b92915050565b600081519050919050565b600082825260208201905092915050565b60005b83811015611b6f578082015181840152602081019050611b54565b83811115611b7e576000848401525b50505050565b6000601f19601f8301169050919050565b6000611ba082611b35565b611baa8185611b40565b9350611bba818560208601611b51565b611bc381611b84565b840191505092915050565b60006020820190508181036000830152611be88184611b95565b905092915050565b6000819050919050565b611c0381611bf0565b8114611c0e57600080fd5b50565b600081359050611c2081611bfa565b92915050565b600060208284031215611c3c57611c3b611a70565b5b6000611c4a84828501611c11565b91505092915050565b600073ffffffffffffffffffffffffffffffffffffffff82169050919050565b6000611c7e82611c53565b9050919050565b611c8e81611c73565b82525050565b6000602082019050611ca96000830184611c85565b92915050565b611cb881611c73565b8114611cc357600080fd5b50565b600081359050611cd581611caf565b92915050565b60008060408385031215611cf257611cf1611a70565b5b6000611d0085828601611cc6565b9250506020611d1185828601611c11565b9150509250929050565b600081519050919050565b600082825260208201905092915050565b6000819050602082019050919050565b611d5081611bf0565b82525050565b600082825260208201905092915050565b6000611d7282611b35565b611d7c8185611d56565b9350611d8c818560208601611b51565b611d9581611b84565b840191505092915050565b6000604083016000830151611db86000860182611d47565b5060208301518482036020860152611dd08282611d67565b9150508091505092915050565b6000611de98383611da0565b905092915050565b6000602082019050919050565b6000611e0982611d1b565b611e138185611d26565b935083602082028501611e2585611d37565b8060005b85811015611e615784840389528151611e428582611ddd565b9450611e4d83611df1565b925060208a01995050600181019050611e29565b50829750879550505050505092915050565b60006020820190508181036000830152611e8d8184611dfe565b905092915050565b600080600060608486031215611eae57611ead611a70565b5b6000611ebc86828701611cc6565b9350506020611ecd86828701611cc6565b9250506040611ede86828701611c11565b9150509250925092565b600080fd5b600080fd5b7f4e487b7100000000000000000000000000000000000000000000000000000000600052604160045260246000fd5b611f2a82611b84565b810181811067ffffffffffffffff82111715611f4957611f48611ef2565b5b80604052505050565b6000611f5c611a66565b9050611f688282611f21565b919050565b600067ffffffffffffffff821115611f8857611f87611ef2565b5b611f9182611b84565b9050602081019050919050565b82818337600083830152505050565b6000611fc0611fbb84611f6d565b611f52565b905082815260208101848484011115611fdc57611fdb611eed565b5b611fe7848285611f9e565b509392505050565b600082601f83011261200457612003611ee8565b5b8135612014848260208601611fad565b91505092915050565b60006020828403121561203357612032611a70565b5b600082013567ffffffffffffffff81111561205157612050611a75565b5b61205d84828501611fef565b91505092915050565b61206f81611bf0565b82525050565b600060208201905061208a6000830184612066565b92915050565b6000602082840312156120a6576120a5611a70565b5b60006120b484828501611cc6565b91505092915050565b6120c681611aff565b81146120d157600080fd5b50565b6000813590506120e3816120bd565b92915050565b60008060408385031215612100576120ff611a70565b5b600061210e85828601611cc6565b925050602061211f858286016120d4565b9150509250929050565b600080604083850312156121405761213f611a70565b5b600061214e85828601611cc6565b925050602083013567ffffffffffffffff81111561216f5761216e611a75565b5b61217b85828601611fef565b9150509250929050565b600067ffffffffffffffff8211156121a05761219f611ef2565b5b6121a982611b84565b9050602081019050919050565b60006121c96121c484612185565b611f52565b9050828152602081018484840111156121e5576121e4611eed565b5b6121f0848285611f9e565b509392505050565b600082601f83011261220d5761220c611ee8565b5b813561221d8482602086016121b6565b91505092915050565b600080600080608085870312156122405761223f611a70565b5b600061224e87828801611cc6565b945050602061225f87828801611cc6565b935050604061227087828801611c11565b925050606085013567ffffffffffffffff81111561229157612290611a75565b5b61229d878288016121f8565b91505092959194509250565b600080604083850312156122c0576122bf611a70565b5b60006122ce85828601611cc6565b92505060206122df85828601611cc6565b9150509250929050565b7f4e487b7100000000000000000000000000000000000000000000000000000000600052602260045260246000fd5b6000600282049050600182168061233057607f821691505b60208210811415612344576123436122e9565b5b50919050565b7f4552433732313a20617070726f76616c20746f2063757272656e74206f776e6560008201527f7200000000000000000000000000000000000000000000000000000000000000602082015250565b60006123a6602183611b40565b91506123b18261234a565b604082019050919050565b600060208201905081810360008301526123d581612399565b9050919050565b7f4552433732313a20617070726f76652063616c6c6572206973206e6f7420746f60008201527f6b656e206f776e6572206e6f7220617070726f76656420666f7220616c6c0000602082015250565b6000612438603e83611b40565b9150612443826123dc565b604082019050919050565b600060208201905081810360008301526124678161242b565b9050919050565b7f4e487b7100000000000000000000000000000000000000000000000000000000600052601160045260246000fd5b60006124a882611bf0565b91506124b383611bf0565b9250827fffffffffffffffffffffffffffffffffffffffffffffffffffffffffffffffff038211156124e8576124e761246e565b5b828201905092915050565b7f4e487b7100000000000000000000000000000000000000000000000000000000600052603260045260246000fd5b600061252d82611bf0565b91507fffffffffffffffffffffffffffffffffffffffffffffffffffffffffffffffff8214156125605761255f61246e565b5b600182019050919050565b7f4552433732313a2063616c6c6572206973206e6f7420746f6b656e206f776e6560008201527f72206e6f7220617070726f766564000000000000000000000000000000000000602082015250565b60006125c7602e83611b40565b91506125d28261256b565b604082019050919050565b600060208201905081810360008301526125f6816125ba565b9050919050565b7f4552433732313a20696e76616c696420746f6b656e2049440000000000000000600082015250565b6000612633601883611b40565b915061263e826125fd565b602082019050919050565b6000602082019050818103600083015261266281612626565b9050919050565b7f4552433732313a2061646472657373207a65726f206973206e6f74206120766160008201527f6c6964206f776e65720000000000000000000000000000000000000000000000602082015250565b60006126c5602983611b40565b91506126d082612669565b604082019050919050565b600060208201905081810360008301526126f4816126b8565b9050919050565b600081905092915050565b600061271182611b35565b61271b81856126fb565b935061272b818560208601611b51565b80840191505092915050565b60006127438285612706565b915061274f8284612706565b91508190509392505050565b7f4552433732313a207472616e736665722066726f6d20696e636f72726563742060008201527f6f776e6572000000000000000000000000000000000000000000000000000000602082015250565b60006127b7602583611b40565b91506127c28261275b565b604082019050919050565b600060208201905081810360008301526127e6816127aa565b9050919050565b7f4552433732313a207472616e7366657220746f20746865207a65726f2061646460008201527f7265737300000000000000000000000000000000000000000000000000000000602082015250565b6000612849602483611b40565b9150612854826127ed565b604082019050919050565b600060208201905081810360008301526128788161283c565b9050919050565b600061288a82611bf0565b915061289583611bf0565b9250828210156128a8576128a761246e565b5b828203905092915050565b7f4552433732313a206d696e7420746f20746865207a65726f2061646472657373600082015250565b60006128e9602083611b40565b91506128f4826128b3565b602082019050919050565b60006020820190508181036000830152612918816128dc565b9050919050565b7f4552433732313a20746f6b656e20616c7265616479206d696e74656400000000600082015250565b6000612955601c83611b40565b91506129608261291f565b602082019050919050565b6000602082019050818103600083015261298481612948565b9050919050565b7f45524337323155524953746f726167653a2055524920736574206f66206e6f6e60008201527f6578697374656e7420746f6b656e000000000000000000000000000000000000602082015250565b60006129e7602e83611b40565b91506129f28261298b565b604082019050919050565b60006020820190508181036000830152612a16816129da565b9050919050565b7f4552433732313a20617070726f766520746f2063616c6c657200000000000000600082015250565b6000612a53601983611b40565b9150612a5e82612a1d565b602082019050919050565b60006020820190508181036000830152612a8281612a46565b9050919050565b7f4552433732313a207472616e7366657220746f206e6f6e20455243373231526560008201527f63656976657220696d706c656d656e7465720000000000000000000000000000602082015250565b6000612ae5603283611b40565b9150612af082612a89565b604082019050919050565b60006020820190508181036000830152612b1481612ad8565b9050919050565b600081519050919050565b600082825260208201905092915050565b6000612b4282612b1b565b612b4c8185612b26565b9350612b5c818560208601611b51565b612b6581611b84565b840191505092915050565b6000608082019050612b856000830187611c85565b612b926020830186611c85565b612b9f6040830185612066565b8181036060830152612bb18184612b37565b905095945050505050565b600081519050612bcb81611aa6565b92915050565b600060208284031215612be757612be6611a70565b5b6000612bf584828501612bbc565b91505092915050565b7f4e487b7100000000000000000000000000000000000000000000000000000000600052601260045260246000fd5b6000612c3882611bf0565b9150612c4383611bf0565b925082612c5357612c52612bfe565b5b828204905092915050565b6000612c6982611bf0565b9150612c7483611bf0565b925082612c8457612c83612bfe565b5b82820690509291505056fea2646970667358221220b4c5468b1a3416230bfbb449f622ecee2faf8fad06b8c1bf227f217108d3e32364736f6c63430008090033a2646970667358221220484e5f5d0d25835c923d7ed73ca8f987fca7ad03287933f06dab7fecc63dfa6264736f6c63430008090033",
  "linkReferences": {},
  "deployedLinkReferences": {}
}